:020000040800F2
:10000000B8180020D50000080D7900080D6100081F
:1000100000000000000000000000000000000000E0
:10002000000000000000000000000000BBA200086B
:100030000000000000000000218800081DC000082A
:10004000E7000008E70000085B900008E7000008F0
:10005000E7000008492C0008592C0008692C00080A
:10006000E7000008E7000008E7000008811D00081D
:10007000E7000008E7000008E7000008E7000008C4
:10008000E7000008E7000008E700000800000000A3
:1000900005C10008E7000008E7000008E7000008C5
:1000A000E7000008E7000008E7000008E700000894
:1000B000E7000008F58F000800000000E7000008D6
:1000C0000348854600F0BAFE00480047C1F4000826
:1000D000B81800200448804704480047FEE7FEE7C0
:1000E000FEE7FEE7FEE7FEE7B1C00008C10000083A
:1000F00030B50B46014600202022012409E00D46C0
:10010000D5409D4205D31D469540491B2546954047
:1001100040191546521E002DF1DC30BD70B500248B
:100120002546002801DA01244042002901DA012590
:100130004942FFF7DDFFAC4200D04042002C00D026
:10014000494270BDF0B51FB40646002082B0054696
:100150004024019100901BE0019922460F46304651
:1001600000F0B6FC049A059B801A994110D3104602
:100170001946224600F09CFC361A8F410197224610
:1001800001200021009F00F093FC38184D410090A1
:100190002046641E0028DFDC019B00982946324679
:1001A00007B0F0BDF0B51FB486B0002000900190FC
:1001B00002900698069980B204900798090C0204F0
:1001C0000014114307900027089D099806913E46A8
:1001D0003C4603900398A9B20204000C03900498D3
:1001E0002D0C154348430021224600F061FCC7193D
:1001F000714110340E46402CECDB3846029A00F078
:1002000057FC009A019B8018009059410298019177
:10021000103002904028CCDB00980BB0F0BD0346B4
:100220000B439B0703D009E008C9121F08C0042A2A
:10023000FAD203E00B780370401C491C521EF9D21D
:100240007047D2B201E00270401C491EFBD27047D9
:100250000022F6E710B513460A4604461946FFF792
:10026000F0FF204610BD421C0178401C0029FBD144
:10027000801A704710B5002200E0521C835C8C5C31
:10028000A34201D1002BF8D1D8B2E1B2401A10BD7F
:1002900030B505460020034600E05B1C934205D2C2
:1002A000EC5CC85C201A01D1002CF6D130BD0321D2
:1002B000001D401E037812021A43491EF9D510464C
:1002C000704700000FB400B58DB009900B9010A9D5
:1002D00000200091C0430A9000200C900648069030
:1002E000064807906A4609A80F9900F02BFC0DB04C
:1002F00008BC04B018470000650B0008850B000817
:10030000FFB50027FF4383B000205C6801909E6822
:100310001D46A9697F1C049888470090296A884770
:100320000028F6D10098401C0CD0032040028443E2
:10033000002E19DD600614D500982B2809D02D2831
:100340000FD103E00020C04307B0F0BD01208002C0
:100350000443A9697F1C04988847761E0090002EEC
:1003600002DD0098302803D00598002825D035E01C
:10037000012040020443A969761E7F1C0498884727
:100380000090002E03DD782805D0582803D005986A
:10039000002810D022E00598002801D010281DD197
:1003A000012040028443A969761E7F1C0498884777
:1003B0000090102002E0082000E00A2005900DE0E7
:1003C000012149020C43059A0199761E51430818F0
:1003D0000190A9697F1C049888470090002E05DDD4
:1003E0000599009800F098FB0028E9DAE96904987B
:1003F0008847A00502D40120C043A5E7E00722D129
:10040000600611D56005019800D5404229680A1D93
:100410002A600968220501D5087014E0220701D579
:10042000088010E008600EE02868011D296000685F
:10043000210502D50199017005E02107019901D537
:10044000018000E0016038467EE770B506460CF09A
:10045000ADFB046805460A220021304600F0A4FBEB
:100460002C6070BDF8B502464A40D40F42004B00E4
:1004700052085B089A4202D20246084611464A00D8
:1004800023D0C30D4A00DDB2120EAD1A202D35DA8D
:1004900049020126490AF6058A19002C00D0524269
:1004A00020214F1B1146B9402A411018C20D9A4213
:1004B00021D0002C17D0012D08DCDA05801AD20FCC
:1004C0008019D207DBB200F0AFFBF8BDDA05801A65
:1004D000012340001B06C01880185A428018CA0F1A
:1004E0001043490007E04908C2071143DA05801AA2
:1004F00080194008801800F08FFBF8BD61000122D0
:10050000511A001BF7E70122D2075140AAE7012246
:10051000D2075040A6E7024670B54A40D30FDB072A
:1005200040002DD04A002AD0010E140E0002120203
:100530000919400A520A8418E50104465443000A86
:10054000120A2E045043A4194219200CC543AA18BC
:10055000120C0125AD03521C521912047F392404D8
:1005600000D0521C104301D44000491EC2B20C06F8
:10057000C0092018401C4008802A02D003E0002057
:1005800070BD40084000002900DA0020184370BD0B
:10059000F0B507460846584087B0C00F04904800A1
:1005A0000E46590040084908BC1A884105D2384611
:1005B00031461E4617460B46024658004008104377
:1005C0004CD0300D039040055900400D490D059069
:1005D000401A0290402872DA18030121000B090525
:1005E0000843019004980092002805D001995242D6
:1005F0000020884100920190029840210A1A019936
:10060000009800F055FA05460C466B4607CB00F003
:1006100070FAC0197141039A0E0D0023D717564086
:100620001A467A40164344D0049A002A2DD0029AE2
:10063000012A039A15DC1205C01A914101263605DC
:10064000001C7141D20F059ED207009301920296C1
:100650002A46234600F02EFB07B0F0BD384631464F
:10066000FAE71605224A0F46B218C01AB74101210F
:100670000905001C4F4100187F41114618187941A7
:10068000E20F10436D19644113E0E2076D08154352
:100690006408C2071443039A01261205C01A914147
:1006A0003605001C7141CE07400830434908C01888
:1006B00051412A46234600F0F0FACDE7FFE70498BF
:1006C00001224000C117121A00238B4104983146C1
:1006D000C417381AA141EEE730B40124E40763409F
:1006E00030BC55E730B40124E407614030BC4FE72B
:1006F0000000E0FFF0B51FB488B00B990998002402
:1007000048400999C00F490049080991C0070B9951
:100710000090490049080B9109990898A64608439A
:100720001CD00B990A98084318D00998012440005E
:10073000420D4800410D099824050003000B204399
:1007400009900B980003000B20430B9050181C4994
:100750004018002201901446104605E00020014692
:100760000DB0F0BD032801DA034600E003239C46E8
:10077000C11A0AAE0AE05F0008ADED5B4F00F75BFF
:100780007D430027AA187C41491C5B1E6145F2DDB0
:10079000410004AB5A522104120C0A43240C401CA1
:1007A0000828DFDB019802900099704601910090C3
:1007B000059B049A0799069800F07CFAD0E70000A0
:1007C0000DFCFFFFF0B50C465C4085B0E40FE4077C
:1007D00003944C00002664085900944649080246D8
:1007E0000296224321D062460A431ED06200570D72
:1007F0004A000E032303550D012402462C4924050B
:10080000781B1B0B360B4018234326436146009090
:100810001C46501AB44103D30098401C009002E0DB
:10082000921800985B41002803DA0020014605B0C9
:10083000F0BD0020012109050746864611E0644607
:100840001D46141BB54106D36546521BB341744681
:1008500007430C43A646CD07400849082843921891
:100860005B4105460D43EAD11046184313D060465C
:10087000194650407140084306D06046101AB341F3
:1008800006D20122002306E000220123DB0702E05A
:100890000122D2435310009874460105381C61416F
:1008A000029C039D0019694100F0F7F9BFE70000C1
:1008B000FD03000070B54B005B0803430BD04B00F9
:1008C0005C0D002633466542B341D417AD1AA341EF
:1008D00002DB0020014670BD12053018514170BD89
:1008E000C217C10F504010B54018CA079623002107
:1008F00000F09AF910BD10B500229623114600F0C1
:1009000093F910BD0EB5C217C10F5040CA07401869
:100910000021054B0293019200910A460B4600F01C
:10092000C9F903B000BD0000330400000EB505494D
:100930000291002100910A460B46019100F0BAF99C
:1009400003B000BD33040000C20F41004002012388
:10095000400ADB05D207090EC0187F2901DA002002
:100960007047962903DC9623591AC84001E096394E
:100970008840002AF4D040427047000070B5CD0F87
:100980004A0009030123090B1B0519430B4BED0713
:100990000024520D9A4201DA002070BD074B343317
:1009A0009A4203DC9A1A00F093F802E004495118C5
:1009B00088402C43F1D0404270BD0000FF0300008E
:1009C000CDFBFFFF4A0009030123090B1B05194357
:1009D000094B10B5520D9A4201DA002010BD064BAA
:1009E00034339A4203DC9A1A00F072F810BD0349BE
:1009F0005118884010BD0000FF030000CDFBFFFF31
:100A0000C20FD207400040080BD0C10D0723DB0105
:100A1000C91840020905400A1143C20840071143A2
:100A2000704700200146704710B5002904DB0124FF
:100A3000E40740428C412146002B04DB1C46012385
:100A4000DB075242A341994200D1904210BD000001
:100A5000CB0FDB07490010B5490802460A4307D00F
:100A60000A0D07240903E401090B121B002A01DC0B
:100A7000002010BDC900440F0C43C100E018D2058E
:100A8000801800F0C9F810BD0122D207002800DB51
:100A9000101A002900DB511A814270470122D20747
:100AA000002800DB101A002900DB511A8842704729
:100AB00010B5202A04DB0146203A9140002010BDE9
:100AC000914020239C1A0346E3401943904010BDF7
:100AD00010B5202A04DB0846203AD040002110BD82
:100AE0000B46D340D0402024A21A91400843194617
:100AF00010BD10B5202A06DBCB170846203A10415E
:100B0000C1170B4306E00B461341D0402024A21A24
:100B100091400843194610BD3A2800D230382023AE
:100B200002469A43412A01D310463738884201D3FE
:100B30000020C0437047000002681378511801601C
:100B40001846704710B5D1600449516104491162DB
:100B500000211161114600F091F910BD390B000818
:100B6000690E00084268002A08D001680B78491C09
:100B7000002B03D0521E06C0184670470121C160E9
:100B8000881E70474268002A0BD0C3680168002B9A
:100B900007D183688B4204D0491E521C06C0002036
:100BA00070470020C0437047F7B5009C0F460026F1
:100BB0002578641C002D05D000F052F90068405DD6
:100BC000C007F5D12B2D02D02D2D18D0641E39462B
:100BD0002046029A00F0EEFA002F04D03968A142B4
:100BE00001D1009939607105022400290BDA4042D5
:100BF000002803DD0BF0DAFF0460A007FEBD012032
:100C000080020643E3E70028F8DA0BF0CFFF046028
:100C10000048FEBDFFFFFF7F002904DA401C4900A9
:100C200001D140084000704770B40024050C05D184
:100C30001024000402D1002921D01124050E01D175
:100C400000020834050F01D10001241D850F01D1D8
:100C50008000A41C002801DB4000641C002908D08F
:100C600020252E1B0D46F540A14000D0012129432F
:100C7000084301061B1B000ADB1D02D5002070BCC7
:100C80007047DB05181880180029F8DA401C490065
:100C9000F5D170BC40084000704710B5002B08DA51
:100CA0000024401C614192185B411A4301D1400865
:100CB000400010BDF0B51FB482B005460C0003D053
:100CC00008460BF037FF02E00BF034FF20300246FD
:100CD000009021462846FFF7EBFE049B059A044648
:100CE0000F4618431143084314D0184610431BD035
:100CF000009840210A1A18460599FFF7E9FE0546B3
:100D00000E46009A05990498FFF7D2FE084305D0D5
:100D1000012004E02046394607B0F0BD0020C1178D
:100D200005430E432C43374300990E986305401A40
:100D30007905E40A00220C43FD0A0A3002D500209E
:100D40000146E9E70105101969410C9C0D9D001948
:100D50006941FFF7A2FFDFE7F8B505464800400804
:100D60000C46284304D06000184A400D904201DD33
:100D70002846F8BD15493539884210DC88420BDB1E
:100D8000290D200308432903014305D0E00F104932
:100D9000C00741180020F8BD00200146F8BD161A12
:100DA0004020821B28462146FFF782FE074600911D
:100DB000284621463246FFF78BFE3A46009BFFF756
:100DC0006CFF3246FFF774FEF8BD000033040000EC
:100DD0000000F03F4A0009030123090B1B051943DA
:100DE0000A4B10B5520D9A4202DA0020014610BD9E
:100DF000064B34339A4203DC9A1AFFF769FE10BDA2
:100E0000034BD218FFF754FE10BD0000FF03000093
:100E1000CDFBFFFF10B5002904DB0124E4074042AD
:100E20008C412146002B04DB1C460123DB07524288
:100E3000A3418B4200D1824210BD0000064C012527
:100E4000064E05E0E36807CC2B430C3C9847103472
:100E5000B442F7D3FFF738F980260108A02601082D
:100E6000004870477C15010810B50446FFF7F8FFED
:100E70000068005DC007C00F10BD0000F3B58DB065
:100E800000200A9001200B90002608460C300C46EA
:100E900009906269012109989047051E2ED0252DE1
:100EA0002DD0216A8847002818D06269012109984D
:100EB0009047216A88470028F7D1411E6269099846
:100EC000904700E0761CA1690D988847216A884701
:100ED0000028F7D1E1690D988847DAE7A1690D98F4
:100EE00088470746A84201D1761CD2E7E1690D98F0
:100EF00088477F1C02D10A98002877D049E1002753
:100F000062693D463946099890472A280CD16269A2
:100F1000012109989047012506E00A214F433F1817
:100F2000303FEBD4102005436269012109989047B6
:100F3000014630390A2903D29B498F42DEDCECE7B7
:100F4000E90600D4994F6C280AD04C2810D06828A4
:100F500024D06A282ED074280CD07A280AD00DE02C
:100F600062690121099890476C2823D004211CE074
:100F7000202005436269012109989047A7606560B8
:100F800065284FD026DC582839D01ADC452849D0AE
:100F900012DC252834D04128B0D143E06269012118
:100FA00009989047682802D008210D43E6E7012000
:100FB000C002DEE70220DCE7462833D047282CD1E8
:100FC00030E05B2870D061282CD063286CD0642876
:100FD00023D161E06F284FD009DC662822D0672832
:100FE00020D0692826D06E2817D12EE0CDE07028B9
:100FF0004DD073286FD075284ED078280DD154E08D
:10100000A1690D9888470546252800D16CE7E1695C
:101010000D9888476D1C00D16DE7BAE00A224CE0BC
:101020000A2252E0012023466A46C0430D99C04679
:10103000C046A3E02846402108436060A807234635
:1010400001D5002239E000223FE0E80700D020E788
:101050002068011D21600068290501D5067018E788
:10106000290701D5068014E7A90703D5F117066003
:1010700041600EE706600CE72846402108436060A7
:10108000A807234601D5082217E008221DE0484999
:1010900028460840606016E028464021084360600A
:1010A000A8072346BCD5B9E715E0284640210843E8
:1010B0006060A80707D5234610220120C0430D9980
:1010C000C046C0465AE0234610220120C0430D9975
:1010D000FFF716F952E000210C910B4600916328AE
:1010E00002D05B2807D043E0E80601D40120A060CD
:1010F000012000903CE062690121099890475E2838
:1011000005D101200C900146626909989047216938
:10111000002906D10B4601AA8F00491CD35108298A
:10112000FADB002835D0216900290ED1C117C90E7C
:1011300009184A11930001AA9A1849094901411A4C
:1011400001201368884003431360626901210998F4
:1011500090475D28E5D10C98002808D0002001AB0D
:1011600081005A58401CD2435A500828F8DB01AB82
:1011700001202246C0430D99C046C04600280ADA25
:10118000401C06D10B98002803D00020C0430FB0AC
:10119000F0BD0A98FBE7E90702D10A99491C0A91B8
:1011A000361800200B9074E6CCCCCC0CFFFFFF7FF0
:1011B000F1F7FFFFF7B582B0029C00272078641C8E
:1011C00015460197302802D0002D15D015E0207863
:1011D0000127641C782804D0582802D0002D09D09B
:1011E0000BE0002D01D0102D07D10027102520780D
:1011F000641C02E0082500E00A250026009610E0A5
:101200000099012769430818020C294680B27143EE
:1012100000908E183804864201D301200190207876
:10122000641C2946FFF778FC0028E9DA03980028B7
:1012300005D0002F01D0641E00E0029C04600198DC
:10124000002806D00BF0B2FC02210160C81E05B0D8
:10125000F0BD009930040843F9E770B58C180578A3
:10126000401C6B075B0F01D10378401C2A1106D18B
:101270000278401C03E006780E70401C491C5B1E7F
:10128000F9D12B0705D40023521E0DD40B70491C35
:10129000FAE70378401CCB1A921C03E01D780D700E
:1012A000491C5B1C521EF9D5A142D8D3002070BD49
:1012B00038B50446064805490068FEF719FF604343
:1012C00000E0401E00900028FBD138BD40420F00D6
:1012D00050000020F8B50446006881688907890F2E
:1012E000012902D10168C90722D18168114A10265B
:1012F0001140012500290ED1816829438160012018
:10130000FFF7D6FF02F02CFC07460CE002F028FCA9
:10131000C01B0A2807D9A06D3043A065E06D2843A3
:10132000E0650120F8BD20680068C043C007EDD12A
:101330000020F8BD17000080F0B589B00C460746C4
:101340001022002168460EF031FB6946224608460D
:101350000CF0A1F868460078872601066846002947
:101360000FDA00214318425C5B785200DB091A4314
:101370004254491C0F29F5DBC17B024649007140EC
:101380000DE000214318425C5B785200DB091A43F0
:101390004254491C0F29F5DBC17B02464900D17339
:1013A000E21DF9325169102912D0017809061BD5C6
:1013B00000214518435C6D785B00ED092B434354D5
:1013C000491C0F29F5DBC17B03464900714019E038
:1013D00000216218FF3201325378455C491C6B4092
:1013E00053701029F5DB26E000214518435C6D7829
:1013F0005B00ED092B434354491C0F29F5DBC17BEE
:1014000003464900D973E11D55698023FA316B54B5
:10141000002500E05D5453695B1C5361102BF9D328
:1014200000216218FF3201325378455C491C6B4041
:1014300053701029F5DB002162181046FF32E030AE
:101440000132437C5278491C534043741029F3DB2A
:1014500021461022F13104A80EF090FA22463946B6
:1014600004A80CF018F81022002168460EF09EFA2D
:1014700009B0F0BD10B5044610220021F1300EF085
:1014800095FAFF20002115300151F02220460EF080
:101490008DFA10BD0B4610B50246102118460CF00F
:1014A00025F810BDF0B50446FF308BB00F46013073
:1014B0000890E11D4069FA310091103915460791F5
:1014C000002843D010210E1AAE4200D316460099D0
:1014D000B2B2401839460EF051FA0898089940699E
:1014E0008019486110283AD3B54238D000216218DB
:1014F0001046FF32E0300132437C5278491C5340A1
:1015000043741029F3DB0799224608460BF0C3FF0A
:10151000BF19AD1B1AE000202118E0314A7C3B5C6A
:10152000401C5A404A741028F6DB102202A8079982
:101530000EF024FA02A9224608460BF0ACFF102256
:1015400002A907980EF01AFA103D1037102DE2D8B4
:10155000AAB2394600980EF011FA089845610BB00E
:10156000F0BD000070B51F4D0026AE7404F07CFF86
:10157000012835D10DF0F6FE2C465034607104F090
:10158000A7FA688E2168000A08702168688E487082
:10159000206886702068C67013482168007808713A
:1015A000124821680078487121687C2088711048B1
:1015B00021680078C8710F480178206801720E49CF
:1015C000097841720D49097881720B2021462071FA
:1015D000303988720DF050FF0146204605F042FA7E
:1015E00070BD000068000020F3000020F40000201F
:1015F000F5000020F6000020F7000020F800002091
:10160000F7B523498022897B214B511ACDB2597BF2
:101610009B7B8026F31A0A46DEB2871E491C0124F2
:10162000C9B2761E3B000BF0B4FA09060C060C1288
:101630000C06062B3000164BAA4224D2154CA0549F
:1016400003E0134BB24215DB1DE059730DE0104E61
:10165000AD1EAA4217DA0F4B985401985854491CF2
:10166000C8B202991954401C707300240848012123
:10167000017308E0074CA05401986054491CE4E74A
:10168000034BAA42F6D32046FEBD0220FEBD000059
:10169000A4010020060E002010B50EF0CFFC024879
:1016A000007801F0F5FB10BD16010020F8B50D46DD
:1016B000044604F00DFA012D14D13EA00AF0B8FE44
:1016C0000028FAD13C4E3D4F3088FFF72FF9002219
:1016D0003B46FFF777F802460B4639A00AF0A8FE12
:1016E0000028F1D13A4F388800281BD00022202151
:1016F000384802F02EFA00260EE0642002F0EFF8DF
:1017000063213046FEF7F4FC002903D1002E01D0FE
:1017100004F0FEFC761CB6B264213888FEF7E8FCC3
:10172000B042EAD2012220212A4802F012FA012016
:1017300000F03AFB284E294F2060012D0DD1B04218
:101740000BD8B84209DC2068FFF75AF902460B466D
:1017500023A00AF06DFE0028F5D1022000F024FB42
:101760006060012D0DD1B0420BD8B84209DC606831
:10177000FFF746F902460B461FA00AF059FE002863
:10178000F5D1032000F010FBA060012D10D1B04274
:101790000BD8B84209DCA068FFF732F902460B46C5
:1017A0001BA00AF045FE0028F5D1C82002F097F8EA
:1017B000F8BD00000D0A00009A00002000408F4094
:1017C0004261743A252E336620560D0A000000004F
:1017D000FA0000200004005000005CC20000FA4241
:1017E000445331384232305F74656D70313A252E82
:1017F00031660D0A00000000445331384232305F38
:1018000074656D70323A252E31660D0A00000000B5
:10181000445331384232305F74656D70333A252E4F
:1018200031660D0A0000000001780448024A43684E
:10183000D1540121017070477F0900200801002068
:1018400010B503480EF0FCFF02490020087010BDDF
:10185000291800080801002010B512480178012954
:101860000ED100210170104B42689C5C012C08D005
:101870000D2C09D00A2C07D07F2A0DD0521C4260B3
:1018800010BD4160082009E0002AF9D09954416058
:1018900005480EF0D7F910BD416006200DF0B0FBF1
:1018A00010BD0000080100207F0900203EB50D4C4E
:1018B0006946227A0A70227F8A70C870E06B0AF04B
:1018C000B7FC0190606C0290E07F69464870207E12
:1018D00007F0F3FB218D606C4143081A616E4018DC
:1018E00060663EBDA4010020FFB5044689B000201B
:1018F00003900890069021891646002915D0019082
:10190000626904922069002A04D000290FD00A4697
:1019100092B20392002900D00E46E168884215D3A6
:10192000039A61688018081A11E00220E7E722682C
:101930006568135C471CAF4202D3451B6D1C00E079
:101940003D46525D1202921C9A18E1E7002001996F
:10195000751807950C994D43854201D2002102E08C
:101960000799FEF7C5FBC8B20199884208D9217FC3
:10197000CA0700D106980690880701D5019800E0B3
:101980000698002E6AD0049949190818616888429F
:1019900064D8002798E0039808186168884200D34B
:1019A000401A20612189002911D121680E546168F3
:1019B000401C814200D8401A2268310A11546168E3
:1019C000401C814200D8401A6169891C61616168CC
:1019D0000D1AB54200D33546B5420DD0B54202D2FC
:1019E000217F002908D0002D6AD0217FCA0730D07E
:1019F0002189002913D019E039460A9A71438918C0
:101A0000226810182A46FEF70AFC606940196061D6
:101A100007990895002089B2751B039140E023685F
:101A2000FF22811E5A542168401E0A5460694019E1
:101A30006061002008902189354600292AD120685C
:101A400005702168280A487061690220891C61615B
:101A500020E089071ED52189002902D000200DB081
:101A6000F0BD2168821E8D542268290A431ED1547C
:101A700039460A9A71438918226810182A46FEF7D7
:101A8000CEFB6069401960610895A069751B401C18
:101A9000A061D4E70199691889B2039100212161FD
:101AA000002D0DD0089A0A993B4689182268734385
:101AB000101859182A46FEF7B2FB60694019606198
:101AC000A069401C7F1CA0610C982169874200D24C
:101AD00061E7019808186168884200D3401A2168BC
:101AE0004018BCE710B5029C01600021C160016193
:101AF00041614260816103810477A00703D5002B17
:101B000001D0481E10BD002010BD0000F0B50389B3
:101B10000022002B09D0002300240C804469002CF3
:101B200058D00289002A02D00DE00223F4E7C268EF
:101B300004684668A55C571CB74200D3921B521C30
:101B4000A25C1202AA1894B20C80027FD50729D099
:101B5000920727D4204A944202D10289002A0AD04F
:101B6000C468026994421DD90289002A1AD04568C6
:101B70002C1B944216D24468C2684569A21AAA1A5C
:101B800042610022C2600289002A0AD10268012C47
:101B9000157802D86442641C00E00124125D120230
:101BA000AA180A80C5684468EA18A24200D3121B2A
:101BB00006680F8892194669FF18F61B466106D021
:101BC00009886918C918A14200D3091BC16081693D
:101BD000491E81611046F0BDFFFF0000F0B503898A
:101BE0000022002B0AD0002700230B804369002B22
:101BF00042D00389C268002B02D00DE00227F3E730
:101C000005684468531CAE5CA342134600D31B1BFB
:101C10005B1CEB5C1B02F3189CB20C80037FDD079E
:101C200023D09B0721D4154B9C4202D10389002B62
:101C30000AD0C46803699C4217D90389002B14D0C9
:101C400045682C1B9C4210D200221B041B0C0BD19C
:101C500043680468012B02D85B425B1C00E001234F
:101C6000E35C24781B021B190B80D1194268914256
:101C700000D3891A00680A181046F0BDFFFF000063
:101C8000FFB5002085B0009005460646019000246F
:101C9000770007980121C05BA14008422FD0281986
:101CA0000C2203905043089A1258002A27D0059A14
:101CB000002A01D1490722D0089941180820029131
:101CC0000856021100070117069840B207F011FCF0
:101CD000002814D00298407A01010E980818C068B4
:101CE000002804D00198401CC0B2019007E0009A7F
:101CF0000F99039888540098401CC0B20090641C4F
:101D0000E4B2102CC5D31035761CEDB2F6B2102D0E
:101D1000BDD3109901980870009809B0F0BD00007B
:101D200030B587B014216846FEF792FA032001907F
:101D30000020029003204003104C0090E06A012133
:101D40000843E062E06A0840059005206946000704
:101D500001F034FEE06A40084000E062606B01255B
:101D6000AD052843606301F06BFB01F079FB01F0E6
:101D70006FFB606BA843606307B030BD001002408A
:101D800010B50EF0FFFC10BD10B5046863608368E9
:101D9000102B036803D099600068C26010BD9A6080
:101DA0000068C16010BD0000F1B5002688B035465E
:101DB0000596089800F084F800280BD0761CF6B23F
:101DC0006D1CEDB2032D01D2032EF2D3089800F062
:101DD00085F864E0089800F047FA4E20089900F072
:101DE0004FFA7F20089900F04BFA0020089900F084
:101DF00047FA7F20089900F043FA089800F034FA77
:101E00004420089900F03CFA274801F068FD089842
:101E100000F02AFABE20089900F032FA00246F463A
:101E2000089800F0D7F93855641CE4B2092CF7D3B0
:101E3000082168460DF055F96946097A8842BFD1F4
:101E4000684601784078000200B2084308D5C043D4
:101E5000401CFEF757FD0022144BFEF74BFC05E03B
:101E6000FEF750FD0322D243FEF724FDFEF7F0FDFE
:101E700004460F48844209D10598401CC0B2059021
:101E800002289DD1089800F029F809E0089800F090
:101E900025F80848844202D80748844200DD074CF0
:101EA00009B02046F0BD0000020300000000B0BFF2
:101EB0000000AA4200005CC20000FA4233CB4C454D
:101EC00010B50446012803D0022C01D0032C01D107
:101ED00000F090F9204600F0ADF810BD30B50022BA
:101EE0001949032387B0012813D0052401252407AD
:101EF00002281FD003281BD1C86A2843C862C86AB9
:101F000028400590081500906946019302922046EA
:101F10000CE0CC6A02200443CC62C96A0193014000
:101F200005910820009002926946084801F046FD9C
:101F300007B030BDC86A2843C862C86AC007C00F6E
:101F4000059001204002DEE700100240000400502E
:101F500010B50022194986B0012813D005230124A9
:101F60001B0702281FD003281BD1C86A2043C86260
:101F7000C86A2040059008150090019269460292B7
:101F800018460CE0CB6A02200343CB62C96A019277
:101F9000014005910820009002926946084801F02E
:101FA0000DFD06B010BDC86A2043C862C86AC007EC
:101FB000C00F059001204002DEE700000010024043
:101FC0000004005010B501221849022386B00128F0
:101FD00012D00524240702281ED003281AD1C86A6B
:101FE0001043C862C86A1040059008150090694601
:101FF0000393019220460BE0C86A1843C862C86A7E
:102000006946184005900820009003930192084803
:1020100001F0D4FC06B010BDC86A1043C862C86A9B
:10202000C007C00F059001204002DFE7001002400A
:102030000004005070B50024012806D005252D07A6
:1020400002282AD003284ED074E00120FFF780FF39
:10205000394D04E0641CE4B2012000F0BFF908210E
:10206000284601F06DFD002802D0C82CF2D35FE0B5
:10207000C82C5DD2002404E0641CE4B2012000F00E
:10208000ADF90821284601F05BFD002802D1F02CB3
:10209000F2D34DE0F02C4BD24CE00220FFF758FF7A
:1020A0000126760204E0641CE4B2012000F096F9F7
:1020B0003146284601F044FD002802D0C82CF2D356
:1020C00036E0C82C34D2002404E0641CE4B20120C1
:1020D00000F084F93146284601F032FD0028D9D1BC
:1020E000F02CF2D324E00320FFF732FF0126B602E2
:1020F00004E0641CE4B2012000F070F93146284687
:1021000001F01EFD002802D0C82CF2D310E0C82C2C
:102110000ED2002404E0641CE4B2012000F05EF959
:102120003146284601F00CFD0028B3D1F02CF2D343
:10213000012070BD002070BD0004005070B5012862
:1021400006D005242407022813D003282BD025E02D
:102150000120FFF737FF1E4C00220821204601F026
:10216000F8FC0A2000F03AF90120FFF7F1FE0821FF
:102170000EE00220FFF726FF01256D02002229460E
:10218000204601F0E6FC0A2000F028F9022018E0C1
:10219000204601F0D5FC012817D000222D2000F0A8
:1021A0001DF9104670BD0320FFF70CFF0125AD029D
:1021B00000222946204601F0CCFC0A2000F00EF94E
:1021C0000320FFF7C5FE2946E2E70122E6E700000B
:1021D0000004005070B5002506462C463046FFF737
:1021E000ADFFA0402843641CE4B2C5B2082CF5D36F
:1021F000284670BD70B51A4D012814D00524240757
:10220000022825D0032822D1FFF7DCFE0022012678
:10221000B6023146204601F09CFC284600F0DEF86C
:10222000012231460DE00120FFF7CCFE0D4C0022CB
:102230000821204601F08DFC284600F0CFF801224D
:102240000821204601F085FC0F2000F0C7F870BD82
:102250000220FFF7B7FE002201267602D9E7000030
:10226000EE0200000004005010B50446FFF7C2FF64
:102270002046FFF7DFFE2146CC2000F001F810BD1C
:10228000F8B5044601291FD005252D07022949D09C
:10229000032946D10320FFF795FE00260127BF0240
:1022A000E007C00F640800286BD00022394628469A
:1022B00001F04FFC082000F091F801223946284631
:1022C00001F047FC3A206AE00120FFF77BFE384E20
:1022D0000025E007C00F640800280ED00022082166
:1022E000304601F036FC082000F078F80122082181
:1022F000304601F02EFC3A200DE000220821304645
:1023000001F027FC462000F069F801220821304640
:1023100001F01FFC022000F061F86D1CEDB2082DE9
:10232000D7D3F8BD0220FFF74DFE002601277F021C
:10233000E007C00F640800280ED000223946284666
:1023400001F007FC082000F049F801223946284630
:1023500001F0FFFB3A200DE000223946284601F04B
:10236000F8FB462000F03AF801223946284601F0F1
:10237000F0FB022000F032F8761CF6B2082ED7D31C
:10238000F8BD00223946284601F0E3FB462000F064
:1023900025F801223946284601F0DBFB022000F037
:1023A0001DF8761CF6B2082E00D279E7F8BD0000C1
:1023B0000004005070B50446FFF756FF2146B420D4
:1023C000FFF75EFF642001F08AFA2046FFF702FF64
:1023D00005462046FFF782FD284670BD06E0002135
:1023E000491CC9B20429FBD3401E80B20028F6D193
:1023F0007047000010B5114900200856104900220E
:102400008A5690420FD10F49002008560E490022EB
:102410008A56904207D10D49002008560C490022E7
:102420008A56904209D00B490B4809F075FF0A48BB
:1024300009F084FF09490120C87710BDF30000208E
:10244000F4000020F5000020F6000020F700002036
:10245000F800002060EA0000E0060020680000208C
:1024600010B503F0DBFB10BDF8B504460D20A070DD
:10247000FF20E0700E480A2107883846FDF738FE35
:102480000E460546642F0DD964213846FDF730FE0F
:10249000070228460A21FDF72BFE080107433743B0
:1024A000B8B203E028023101084380B22080F8BDB1
:1024B00018010020F0B5ABB09F4D00241AAE28469D
:1024C00000F094FCA100641C2D1D7050112CF6DB53
:1024D00000249A4D01940094A91C08201B9B1A9A71
:1024E0000DF0F3FD1C98E8601F9820990191009071
:1024F0002946183110201E9B1D9A0DF0E6FD2499E7
:10250000239801910090294628311020229B219A7E
:102510000DF0DBFD2899279801910090294638316C
:102520001020269B259A0DF0D0FD01942946009499
:10253000103108202A9B299A0DF0C7FD7E4F5C3789
:102540000026384600F052FCB20005A9761C3F1D5B
:102550008850152EF5DB0220694608720598000E9A
:1025600001D0012100E000216846017302A804F0B7
:1025700061FE1621684601720598011468460173D0
:1025800002A804F057FE05986C4E001240363075D4
:1025900005980127C0B201287ED06C7068780128A8
:1025A00000D0002005F018F9072069460872069847
:1025B000000E00D00120087302A804F03BFE06982C
:1025C0000002000E012874D02C7069460C72069827
:1025D000000A087302A804F02DFE0698C0B2012874
:1025E00069D034730A24684604720798039002A8DD
:1025F00004F020FE684604720899017402A804F0F1
:1026000019FE1021684601720998039002A804F08F
:1026100011FE1121684601720A98039002A804F085
:1026200009FE1221684601720B98039002A804F07B
:1026300001FE1321684601720C98039002A804F071
:10264000F9FD0321684601720D98039002A804F079
:10265000F1FD3B490E9808600F983A49000A08704E
:102660000F98F07235481099083801601199364A70
:10267000090C11801199354A090A117011990171DB
:1026800012983349000E087012983249000C0870F5
:1026900012983149000A01E009E00AE008702F4968
:1026A000129808701398000E07D0012106E06F7091
:1026B00074E72F7089E7377394E700211F482838A3
:1026C00081701399090C81711499090C81811498F6
:1026D000234900120870234914980870159822495C
:1026E00000160870159821490014087015982049A3
:1026F000001208701F49159808701F491698088025
:1027000017981E49000C08701D49179808801898E2
:102710001C49000E087018981B49000C0870189886
:102720001A49000A08701A49189808701949199826
:1027300008802BB0F0BD000004000808380100201C
:102740009C000020F200002094000020880000205F
:10275000EE000020EF000020F0000020F10000203B
:10276000F3000020F4000020F7000020F800002013
:10277000F5000020F6000020FA000020890000206B
:10278000960000208D0000208C0000208F0000208B
:102790008E00002098000020FEB5022069460870D7
:1027A000684604F0CBFC002802D0A9A009F040FE46
:1027B00068460079162104066846017004F0BEFCE4
:1027C000002802D0A2A009F033FE68460421415639
:1027D000A54E08041421715620430A023746403F93
:1027E000354602437978683D2879114382009F4C31
:1027F000401CA150287107216846017004F09EFC1E
:10280000002802D092A009F013FE684639780079BA
:102810000F040006074300216846017004F08EFC97
:10282000002802D08AA009F003FE68460079317BB7
:1028300000023843014328790A278200A150401C36
:1028400028716846077004F079FC002802D080A047
:1028500009F0EEFD287901998200A150401C2871F1
:102860006846077004F06AFC002802D078A009F0DE
:10287000DFFD6846017A28798200A150401C28714A
:1028800010216846017004F059FC002802D070A0A5
:1028900009F0CEFD287901998200A150401C2871D1
:1028A000112069460870684604F048FC002802D0F0
:1028B00067A009F0BDFD287901998200A150401C54
:1028C0002871122069460870684604F037FC002819
:1028D00002D05FA009F0ACFD287901998200A150D7
:1028E000401C2871132069460870684604F026FCD5
:1028F000002802D056A009F09BFD2879019982009A
:10290000A150401C2871032069460870684604F0F5
:1029100015FC002802D04EA009F08AFD2879019903
:102920008200A150401CC0B2514982000968A150E8
:102930006A78F17A12064F4B11432A781B781204F9
:102940001B02401C1A43C0B211438200A150401C1C
:10295000C0B24549830048390A68E250464A474BAD
:1029600012881B7812041B020979401C1A43C0B25A
:102970000A43810062504249424A097812780906A6
:1029800012041143404A401C1278C0B21202114393
:102990003E4A127811438200A150A978AA79401CBE
:1029A00009061204C0B211438200A150401CA9893B
:1029B000C0B2374A0904127812021143354A12781C
:1029C00011438200A1503449344A0978127809062B
:1029D00012041143324A401C1278C0B21202114351
:1029E000304A127811438200A150401CC0B22E49D7
:1029F00082000988A1502D492D4A09781288401C6F
:102A00000904C0B211438200A1502A492A4A097818
:102A10001278090612041143284A401C1278C0B2E9
:102A200012021143264A127811438200A150401C21
:102A3000C0B2244982000988A150401CC2B22A7148
:102A40000A49214800F0CEF800202871FEBD0000A0
:102A50004C4F52414D41432053544154555320450E
:102A600052524F520A0D000078010020000A002047
:102A70009C000020F200002094000020880000202C
:102A8000EE000020EF000020F0000020F100002008
:102A9000F3000020F4000020F7000020F8000020E0
:102AA000F5000020F6000020FA0000208900002038
:102AB000960000208D0000208C0000208F00002058
:102AC0008E000020980000206000080810B5164C09
:102AD0000022A11C08200DF08BFC00210120E268DF
:102AE0000DF086FC21460022183110200DF080FCEC
:102AF00021460022283110200DF07AFC21460022C8
:102B0000383110200DF074FC2146002210310820CD
:102B10000DF06EFC283C62790449054800F062F82B
:102B20000020607110BD000038010020800A0020E4
:102B30000400080870B50D4DEFF3108472B600F074
:102B40001BFF0A4E7836284600F0CEFE002804D03F
:102B500084F3108806A009F06BFC2D1DB542F2D35A
:102B600000F0D6FE84F3108870BD000060000808F5
:102B70006572726F7220696E20454550524F4D202C
:102B80004572617365206F7065726174696F6E0A5A
:102B90000D00000070B50546EFF3108472B600F02A
:102BA000EBFE284600F0A0FE002804D084F3108835
:102BB00003A009F03DFC00F0ABFE84F3108870BD6B
:102BC0006572726F7220696E20454550524F4D20DC
:102BD0004572617365206F7065726174696F6E0A0A
:102BE0000D000000F7B5174600260546EFF31084E8
:102BF00072B600F0C1FE10E00198B10042582946BB
:102C0000022000F08FFE002805D084F3108806A073
:102C100009F00EFC03E02D1D761CBE42ECDB00F03B
:102C200077FE84F31088FEBD6572726F7220696E44
:102C300020454550524F4D2057726974652065728A
:102C4000726F720D0000000010B5012000F0AAFEA6
:102C5000022000F0A7FE10BD10B5042000F0A2FE77
:102C6000082000F09FFE10BD10B5102000F09AFE65
:102C7000202000F097FE402000F094FE802000F01D
:102C800091FEFF20013000F08DFE0120400200F097
:102C900089FE0120800200F085FE0120C00200F0C4
:102CA00081FE0120000300F07DFE0120400300F0C2
:102CB00079FE0A49486940040BD509480078002884
:102CC00002D0084A0120106001208003486100F012
:102CD00065FE0120C00300F065FE10BD0004014048
:102CE00079000020A0000020FEE7000010B5214A76
:102CF00000219069C305204804D541690223194386
:102D00004161911593699B0505D5436901242343CE
:102D100043616302194393695B0505D54369082440
:102D200023434361E301194393691B0505D54369B7
:102D30000424234343616302194393699B0405D52B
:102D400043691024234343616302194393699B033E
:102D500004D5446920231C43446119439369DB0370
:102D600005D54369402423434361A0020143916197
:102D700010BD0000002002404404002070B505464C
:102D800000F0EEFE0646184C0AE0681C08D0002D44
:102D900004D000F0E5FE801BA84201D9032070BDDD
:102DA000A069C007F1D1A069800701D50220A06108
:102DB000A069C00511D4A06980050ED4A0694005A2
:102DC0000BD4A069000508D4A069800405D4A069CB
:102DD000800302D4A069C00303D5FFF787FF012059
:102DE00070BD002070BD0000002002400168024854
:102DF00041604068704700000000002070B594B04A
:102E0000214D002402AE2846FFF7F0FFA100641C0C
:102E10002D1D7050112CF6DB00241C4D00940194E4
:102E2000A91C0820039B029A0DF04FF90498E86052
:102E30000899079801910090294618311020069BA7
:102E4000059A0DF042F90B980C99019100902946D2
:102E5000283110200A9B099A0DF037F910990F9824
:102E6000019100902946383110200E9B0D9A0DF0EB
:102E70002CF929460094019410310820129B119AD4
:102E80000DF023F914B070BD009101083801002045
:102E900010B586B0044614216846FDF7D9F91748E5
:102EA000C26A02210A43C262C06A08400590480310
:102EB000009000211248002C06D0012C0BD0022CCF
:102EC0000BD0032C0BD00DE001910291694600F06C
:102ED00075FD06B010BD0B4A02E00B4A00E00B4A3C
:102EE00001920291694600F069FD0022032107204A
:102EF00000F0B0FE072000F0A3FEEAE70010024059
:102F000000040050000031100000211000001110DA
:102F10000649800009580648091803D0C14203D069
:102F20000020704701207047022070477C11010883
:102F3000702FFCFF10B5094A0021CB00D458844201
:102F400007D89B189B68834203D9C8008018007972
:102F500010BD491CC9B21529EFD3FEE7C00A01080C
:102F600030B593B038216846FDF772F90125002489
:102F7000059508200A940090684601F06FF9002832
:102F800001D0FFF7B1FE1B491B4812C004601B496A
:102F900084604160083802F021F9002801D0FFF771
:102FA000A3FE1421144802F03CF80C2010900E945B
:102FB00000220EA90F9511940F4802F069F800281D
:102FC00001D0FFF791FE00210B4802F035F90028EF
:102FD00001D0FFF789FE0A4CA0680228FCD100212D
:102FE000054802F04DF9044802F0E2F8606813B0B9
:102FF00030BD00000008014068020020FFFF000013
:10300000080000200349884201D30E2070470A209F
:10301000704700002021F636F8B5054604464035D5
:10302000287D0026012808D00120287520688168A5
:103030008907890F01290ED101E00220F8BD01683E
:10304000C90708D0A06D20210843A06501260020F3
:1030500028753046F8BDA16DFF220132914302224E
:103060001143A165C1688907890F0091C16889086A
:103070008900C1602068816892071143816000F077
:103080006FFD07460EE000F06BFDC01B0A2809D952
:10309000A06D0221884310210843A06500202875F7
:1030A0000120F8BD206880680028ECDB2068C1683A
:1030B000009A1143C160A06D80088000401CA0658B
:1030C000C5E70000F8B506460D464036317D0129BA
:1030D0000DD00121317501688A68520709D5816DCB
:1030E000202211438165002030750120F8BD0220A7
:1030F000F8BD174B6A68D80547109A42154C8A6A82
:103100002B6812D05B035B0B1A438A622968490360
:1031100005D5A1680143A1600A20FEF7C9F8286817
:10312000800312D5A06838430EE05B035B0B9A4323
:103130008A622968490302D5A1688143A160286891
:10314000800302D5A068B843A06000203075F8BDA8
:1031500001100000002701400068006C704700006B
:1031600070B5040006D0A06D264600254036002824
:1031700002D006E0012070BDE5653575204600F0FF
:10318000D1F8A06DC00603D421688868400705D532
:10319000A06D10210843A0653575EBE7A06DFF22F7
:1031A0000132904302221043A06588688207920F83
:1031B0005A48012A02D10A68D2072BD10323626838
:1031C0009B079A4205D05B429A4202D05B009A422A
:1031D00009D10A69920092080A6121680A69636844
:1031E0001A430A610CE00A69920092080A61816838
:1031F0000F2292049143816081686268114381606B
:103200002168CA6818239A43CA602168CA68A368FB
:103210001A43CA6081680122520691438160816825
:10322000228F52061143816020688168C90004D44E
:10323000816801221207114381602068C168384A01
:103240001140C1602169E068022923D000210843B0
:10325000216A226B4903520011430843616B084302
:10326000A16989030843E169C90308432168CA6861
:103270001043C860A06A0146FF39C23905D0E16A2F
:1032800008432168CA681043C860606A01210128A8
:1032900002D00BE00421DAE7206A002823D0A06DD9
:1032A00020221043A065E06D0843E065206C0128F2
:1032B00020681FD00169C90703D001694908490086
:1032C000016120684169C908C900416120684169FC
:1032D000E26B11434161E565A06D80088000401CF0
:1032E000A065002070BD2068C26801231B041A433A
:1032F000C260DBE70269FF239B009A4302612068FA
:103300000269636CE66C1A43A36C33431A4302618F
:10331000206802690A430261D3E7000000270140E8
:103320001902FEFF7047F8B504464069254640354E
:103330000E4608280BD02068C068C00709D0A06DD1
:1033400020210843A065002028750120F8BD08272A
:1033500000E00C2700F004FC009011E0701C0FD07E
:10336000002E05D000F0FCFB0099401AB04207D9AE
:10337000A06D04210843A065002028750320F8BD36
:10338000206800683842E9D0A06D01214902084355
:10339000A0652068C16809058A0F0C21002A1AD18E
:1033A000226A002A17D10268120714D582685307CF
:1033B0000122002B08DB43688B434360A06D13029E
:1033C00098431043A06506E0A06D20231843A06534
:1033D000E06D1043E065A069002801D1206801601C
:1033E0000020F8BD70B504462168002089684907AF
:1033F00021D425464035297D01291CD0012129757C
:10340000E169012904D02046FDF764FF002811D1AD
:10341000A16D0A4A1140FF2201321143A16500212A
:10342000E165297522681C21116021688A680423DE
:103430001A438A6070BD022070BD0000FEF1FFFFDC
:1034400002484168490849004160704700580140FE
:10345000024841680422914341607047005801408E
:103460000248416802229143416070470058014080
:1034700070B50024024620325179022903D004217C
:10348000C16301243CE001680B680E25AB430B606F
:1034900001680B685B085B000B601A4B016899427E
:1034A00001D1012121E0174B1433994201D11021A0
:1034B0001BE0144B2833994201D1891515E0114BBB
:1034C0003C33994201D189140FE00E4B503399429D
:1034D00002D10121090408E00A4B6433994202D168
:1034E0000121090501E001210906064B083B59604D
:1034F0000121517100211171816B002900D0884791
:10350000204670BD08000240F8B504469D48016899
:103510009C4A9C4E9B4F0832206813041C3630375F
:10352000904201D108221EE0B04201D180221AE06F
:10353000B84202D10122D20215E0924A44329042AE
:1035400002D10122D2030EE08E4A5832904201D1BC
:103550001A4608E08B4A6C32904202D10122D20511
:1035600001E00122D20625461140203500293BD03A
:103570000168090738D50168082291430160814933
:1035800020680831884201D108201EE0B04201D1F4
:1035900080201AE0B84202D10120C00215E079492A
:1035A0004431884202D10120C0030EE075495831F0
:1035B000884201D1184608E072496C31884202D134
:1035C0000120C00501E00120C0066E494860E06BA3
:1035D00001210843E0630420687100202871616BB9
:1035E000002901D02046884766480168654A20685E
:1035F00008321315904201D104221EE0B04201D1DD
:1036000040221AE0B84201D11A4616E05D4A44321F
:10361000904202D1012292030FE05A4A583290425E
:1036200002D10122920408E0564A6C32904202D143
:103630000122920501E001229206114238D0016870
:10364000490735D50168890603D4026804218A43F5
:1036500002604C4920680831884201D104201EE0F4
:10366000B04201D140201AE0B84201D1184616E01C
:1036700044494431884202D1012080030FE041498E
:103680005831884202D10120800408E03D496C3164
:10369000884202D10120800501E0012080063949DD
:1036A000486005206871216B002901D020468847B9
:1036B00034480168334A206808325315904201D1DA
:1036C00002221EE0B04201D120221AE0B84201D10C
:1036D0001A4616E02B4A4432904202D1012252038C
:1036E0000FE0284A5832904202D10122520408E0E9
:1036F000244A6C32904202D10122520501E001229B
:10370000520611423CD00168890739D50168890603
:1037100003D401680222914301601A4920680831EC
:10372000884201D102201EE0B04201D120201AE0DF
:10373000B84201D1184616E012494431884202D1FC
:10374000012040030FE00F495831884202D1012087
:10375000400408E00B496C31884202D10120400549
:1037600001E00120400607494860E06BE06301206A
:10377000687100202871E16A002901D0204688473D
:10378000F8BD00000000024070B5002805D00346D7
:1037900020335979002902D003E0012070BD0021B7
:1037A000197102215971046822683749C5680A40B5
:1037B0008168466929430569354329438569294359
:1037C000C5692943056A2943114321602F492F4CBC
:1037D00002687831A24206D18A6A120912018A620D
:1037E0008A6A406849E0294C1434A24207D18A6AA7
:1037F000F024A2438A628A6A406800013DE0234CBB
:103800002834A24208D18A6A0F242402A2438A6281
:103810008A6A4068000230E01C4C3C34A24208D165
:103820008A6A0F242403A2438A628A6A40680003DA
:1038300023E0164C5034A24208D18A6A0F24240493
:10384000A2438A628A6A8088000416E00F4C6434BE
:10385000A24208D18A6A0F242405A2438A628A6A96
:103860008088000509E08A4209D18A6A0F2424066B
:10387000A2438A628A6A0079000602438A620120B2
:103880005871002070BD00000FC0FFFF080002400B
:10389000F8B5044620300579012D1ED001250571AB
:1038A0000226467120680768AF4307602046FEF78E
:1038B0006BFA2068016831430160206801680422C6
:1038C00011430160206801680822114301602068EB
:1038D0000168294301600020F8BD0220F8BD01B550
:1038E0000098FEF7BDFD08BD70B5074D044628469B
:1038F000FFF744FA002805D10449486120602846B2
:10390000FFF73CFA70BD000050C3000044040020E3
:1039100003484168012211434160002070470000C4
:1039200000200240F8B5124D0746287C14460E468A
:10393000012807D0012028740E48FFF71FFA00283D
:1039400002D00CE00220F8BD00216961022F09D0ED
:10395000012F09D0002F09D00648FFF70FFA0021E8
:103960002974F8BD3460FAE73480F8E73470F6E77C
:103970004404002050C3000005484168C90705D031
:103980000449C1600449C1600020704701207047AC
:1039900000200240EFCDAB890504030210B502F010
:1039A00067F810BD10B504494A69024202D0486167
:1039B000FFF7F4FF10BD000000040140F8B500233C
:1039C0000124A7E027469F403A4070D04D68022D61
:1039D00001D0122D14D1DD08AD002D1800952D6AEF
:1039E0005E07AC46F50E0F26AE46AE406546B543C3
:1039F000AC460E697546AE4065462E43009D2E626C
:103A00004D68012D05D0022D03D0112D01D0122DAE
:103A100016D185680326AC465D00AE46AE406546CD
:103A2000B543AC46CE687546AE4065462E438660CB
:103A300046680D79BE43ED06ED0F9D403543456068
:103A400006685F000325BD40AE46AE430D79B4461F
:103A5000AE07B60FBE4065462E430660C668754683
:103A6000AE438D68BD403543C5604D68ED0050D50F
:103A70002B4D6E6B26436E639E082A4DB60075195A
:103A8000AC46AD689E07360F0F27B740BD430527EC
:103A90003F07B84201D100271AE0234FB84201D1B5
:103AA000012715E0214FB84202D1022710E030E093
:103AB0001F4FB84201D103270AE01E4FB84201D17F
:103AC000042705E01C4FB84201D1052700E0062776
:103AD000B7402F436546AF60184D2E684F68964338
:103AE000FF0300D516432E606E684F689643BF03F0
:103AF00000D516436E60AE684F689643FF0200D54E
:103B00001643AE60EE684F689643BF0200D5164379
:103B1000EE605B1C0A681546DD4000D052E7F8BD38
:103B20000010024000000140000400500008005056
:103B3000000C005000100050001C00500004014018
:103B40000069084000D00120704742694A40426144
:103B50007047002A01D08161704781627047000080
:103B600001480068704700005400002070B5040050
:103B70000FD021681348086021681348086003CCFF
:103B800041602068083C21688860FFF7E9FF05462E
:103B900008E0012070BDFFF7E3FF401B302801D98A
:103BA000032070BD2068C0680028F4D12068026935
:103BB000E1688A4201D0016101E00449016000200E
:103BC00070BD0000CCCC000055550000AAAA000032
:103BD000006802490160002070470000AAAA0000A6
:103BE00002480168491C0160704700005400002031
:103BF00010B506480168022211430160032000F05D
:103C000007F800F007F8002010BD00000020024077
:103C10000020704710B50848816B0204114381638E
:103C200000F02CF800F022F8044801680822114343
:103C3000016000F013F810BD0010024000200240A7
:103C4000C106C90E01208840014908607047000084
:103C500000E100E010B503F05BFE10BD0248016812
:103C6000021511430160704700700040024801686E
:103C7000421511430160704700700040024801681E
:103C8000102291430160704700700040094B1A6890
:103C90009208920002431A600748026904239A437B
:103CA0000261012903D040BF20BF20BF704730BF51
:103CB000704700000070004000ED00E00A4B1A68F9
:103CC0009208920002431A600848036904221343D1
:103CD0000361012906D040BF20BF20BF0169914385
:103CE0000161704730BFF9E70070004000ED00E06F
:103CF000F8B56649074601250020ED03624B634A8B
:103D00004031102F6FD011DC012F77D0022F6CD0F3
:103D1000042F6BD0082F24D1C96803242403214029
:103D20007BD0BD026C10A9427CD0A0E00326584C89
:103D30003604202F0BD0402F35D0FF3F012F10D15C
:103D4000C968314069D07C04A1426BD096E00B6910
:103D50000969012731403F04B94203D1990559E06F
:103D60002846F8BD01256D04A94203D19907F8D56D
:103D70004848F8BDB142FCD111688903F9D51168F2
:103D800003200005014001200005091A09D0091A85
:103D900005D0814201D14048F8BD2046F8BD3F48DA
:103DA000F8BD3F48F8BDC9680125AD06294006D0D9
:103DB000A942F7D191688907F4D53A48F8BD11684E
:103DC0008901FBD5D068D1688002374D000F2D5C8A
:103DD0000802810FD068491CC0030AD41068C006CD
:103DE00005D5204606E045E008E023E030E018462F
:103DF00000E02E486843FCF77BF9F8BDCC68A407C7
:103E0000A40F0CD0022C0DD0012C10D0032CF4D117
:103E1000096989050029A3DBF8BD16E002E000F07E
:103E2000D1F9F9E711684907F6D51846F4E700F02B
:103E3000D9F9F1E7CC680C26344006D0082CF1D033
:103E4000042CF4D00C2CE3D0E6E700F0ABF9E3E768
:103E5000CC680326B6023440F7D00127FF02BC42EB
:103E6000E0D07A109442E2D0B442D1D0D4E7A1425B
:103E7000DDD0D1E7916B4902E7D4CDE701221204EE
:103E80009142D4D0C8E700000024F40000100240A2
:103E900000093D008890000020A1070040420F006B
:103EA00080841E00006CDC02E80B010800127A001E
:103EB000F8B5044600785E4D800672D55C4E00274A
:103EC000403EB06BC00004D4B06BA9050843B0639A
:103ED000012758480168C90511D4016882151143AA
:103EE0000160FFF73DFE009005E0FFF739FE009905
:103EF000401A642837D84F480068C005F5D53268A5
:103F00000321090560680A400140914208D08103FD
:103F1000890F032904D13168890301D50120F8BD37
:103F20002A69032109040A4022D0084090421FD088
:103F3000207880061CD528692A6988430121C90494
:103F40000A432A612A698A432A612861C0050FD57C
:103F5000FFF706FE009008E0FFF702FE0099411A05
:103F60003548814201D90320F8BD28698005F3D581
:103F700061688803800F032805D1326800058243F9
:103F800001400A433260286903226168120411402B
:103F900008432861002F04D0B06B01210907884332
:103FA000B0632078C00705D0E868A1688008800069
:103FB0000843E8602078800705D5E8680C2188432D
:103FC000E1680843E8602078400706D5E8680321E7
:103FD0008902884321690843E8602078000706D5F4
:103FE000E86803210903884361690843E860208881
:103FF000C00506D5E868032109048843A169084380
:10400000E8602078400606D5E868012189068843E3
:10401000216A0843E8602078000606D5E868032195
:1040200089048843E1690843E8600020F8BD000086
:10403000401002400070004088130000F8B50546AB
:1040400053480E460068C007C00FB0420AD250481D
:10405000016849084900314301600068C007C00F8A
:10406000B0426FD128784B4C800705D5E068F0212D
:104070008843A9680843E0602878C00752D0686880
:10408000022817D0032818D02168012818D08905E4
:10409000002957DAE168890889000143E160FFF7E8
:1040A0005FFD69680746022912D003291CD0012947
:1040B00026D033E021688903EAE721688901E7E730
:1040C0004907E5E7FFF74CFDC11B3348814223D880
:1040D000E0680007800F0228F4D123E0FFF740FDDD
:1040E000C11B2D48814217D8E0680007800F0328C4
:1040F000F4D117E0FFF734FDC11B274881420BD8EC
:10410000E0680007800F0128F4D10BE0FFF728FDDD
:10411000C11B2148814201D90320F8BDE068000796
:10412000800FF3D11A480168C907C90FB1420BD9F2
:10413000016849084900314301600068C007C00FA9
:10414000B04201D00120F8BD2878400706D5E068CC
:10415000072109028843E9680843E06028780007DE
:1041600007D5E0680721C90288432969C9000843C7
:10417000E06000F037F8E168084A0906090F515C71
:10418000C840074908600320FFF742FD0020F8BD42
:10419000002002400010024088130000D80B0108E4
:1041A00050000020044805490068C968044A4905D0
:1041B000490F515CC8407047500000200010024079
:1041C000F10B0108044805490068C968044A8904DC
:1041D000490F515CC8407047500000200010024059
:1041E000F10B010810B5184AD1680C2008400428CA
:1041F0000BD0082810D00C2810D050680004410FB4
:104200000120C003491C884010BD1068C00601D5BC
:104210000E4810BD0E4810BD0E4810BD88020E4B52
:10422000000F185C0902D368890F491CDB0301D514
:10423000084A05E01268D20601D5044A00E0044AA3
:104240005043FBF755FF10BD0010024000093D0030
:104250000024F40000127A00E80B0108F8B50446C7
:104260000078FF4DC0074CD0E8680007800F022897
:1042700007D0E8680007800F032809D1E868C00369
:1042800006D5286880033CD56068002875D038E0E2
:10429000012062680004824203D129680143296039
:1042A00011E0052301211B0489049A422A6802D1E6
:1042B0000A432A60F1E782432A602A68024000929A
:1042C000286888432860606800280DD0FFF748FC04
:1042D0000646E44F04E0FFF743FC801BB8427DD85C
:1042E00028688003F7D50CE0FFF73AFC0646DD4F5F
:1042F00004E0FFF735FC801BB842F0D82868800343
:10430000F7D42078800741D5E8681F270007800F81
:104310003F02012807D0E8680007800F032809D171
:10432000E868C00306D42868400717D5E06801286C
:1043300023D113E0E068002817D0296809229143AF
:1043400001432960FFF70CFC064604E0FFF708FC78
:10435000801B0228C3D828684007F7D56868216900
:10436000B84309020843686010E02868400840002C
:104370002860FFF7F5FB064605E090E0FFF7F0FB4D
:10438000801B0228ABD828684007F7D42078C006E5
:1043900076D5E868B44E0007800F0BD0E06900289E
:1043A0005DD02868FF21013108432860FFF7D8FB62
:1043B000074644E02868800502D5E06900286ED0F1
:1043C000606A69683140884212D904F0DBFD002838
:1043D000AED16868616AB043084300E0E4E0686019
:1043E0006868218C0002000A0906084368600FE033
:1043F0006968B143014369606868218C0002000A62
:10440000090608436860606A04F0BCFD00288FD18B
:10441000606A410B0120C003491C8840E968934A47
:104420000906090F515CC840914908600320FFF755
:10443000EFFB25E0FFF794FBC01B02288AD8286811
:104440008005F7D56868616AB043084368606868AA
:10445000218C0002000A09060843686010E0296800
:10446000FF20013081432960FFF77AFB064604E014
:10447000FFF776FB801B022884D828688005F7D4D4
:1044800020787C4E000723D560690028306910D061
:10449000012108433061FFF763FB074605E009E1AE
:1044A000FFF75EFBC01B02287ED830698007F7D576
:1044B0000EE0400840003061FFF752FB074604E081
:1044C000FFF74EFBC01B02286ED830698007F7D477
:1044D0002078400761D5A86B0027C00005D4A86BE1
:1044E000012109070843A863012763480168C9053A
:1044F00011D40168821511430160FFF731FB009070
:1045000005E0FFF72DFB0099401A64284CD85A4863
:104510000068C005F5D5FF20A2680130824203D1B2
:1045200031690143316111E001218902002A07D07C
:1045300005231B029A4203D132690A433261EFE735
:10454000326982433261306988433061A068002853
:104550000ED0FFF705FB009006E0FFF701FB009986
:10456000411A404881421FD830698005F5D50DE0D9
:10457000FFF7F6FA009006E0FFF7F2FA0099411A09
:104580003848814210D830698005F5D4002F04D016
:10459000A96B012000078143A9632078800630D5EC
:1045A0003649A0694A1400E07DE0002816D0AB68C7
:1045B00001200343AB606B6B03436B63086A1043DA
:1045C0000862FFF7CDFA064604E0FFF7C9FA801B40
:1045D000022868D8A8688007F7D512E0A8684008C4
:1045E0004000A860086A90430862FFF7B9FA0646DF
:1045F00004E0FFF7B5FA801B022854D8A8688007AA
:10460000F7D4A06A002853D0E9680907890F032965
:1046100050D0012636060228286805D0B04328600D
:10462000FFF79EFA044640E0B0432860FFF798FA8F
:10463000074604E0FFF794FAC01B022833D8286825
:104640008001F7D4216BE06AEA680843616BFD23BF
:104650001B049A4311430843E860286830430FE085
:10466000001002408813000000E00000D80B010891
:104670005000002040100240007000400000014047
:104680002860FFF76DFA044604E0FFF769FA001BA3
:10469000022808D828688001F7D509E0FFF760FAFA
:1046A000001B022801D90320F8BD28688001F5D439
:1046B0000020F8BD0120F8BD30B5014620310A7850
:1046C000012A15D001220A7002234B700468CA2304
:1046D000636204685323636203689C6820252C434B
:1046E0009C600068FF2343624A700020087030BD60
:1046F000022030BD10B507F0BDFD10BDF8B5054670
:1047000004462035287801281DD001202870022079
:1047100068702268CA205062226853205062FF20CD
:1047200001300026FF2781421CD121688A6882431C
:104730008A60206881680122120391438160FFF73B
:104740000FFA009009E00220F8BDFFF709FA00997E
:10475000411A7D20C00081421BD82068C068C00774
:10476000F3D020E0206881680122520291438160E9
:1047700020688168120191438160FFF7F1F9009090
:104780000DE0FFF7EDF90099411A7D20C00081424C
:1047900005D920684762032068702E70F8BD206834
:1047A000C0688007EDD520684762012068702E70D0
:1047B0000020F8BD10B500680B464068C021C94311
:1047C00001400002000ECC04D870E40E5C708C0630
:1047D000A40E0904490F9C701970002A0AD104F034
:1047E0000DFCD870587804F009FC5870987804F0E3
:1047F00005FC9870002010BD30B50B460168896A31
:104800005960016809694904490C996000680468A5
:104810000F482146014088024D04800E18706D0E2D
:1048200049065D70490E99706102490E402421408D
:10483000D970002A0AD104F0E1FB1870587804F00E
:10484000DDFB5870987804F0D9FB9870002030BDDB
:104850007F7F7F0070B5040005D02546203568783D
:10486000002802D006E0012070BD002028702046FC
:1048700000F042F8022068702168CA20486221686E
:1048800053204862204604F0CCFBFF21002820681A
:1048900003D0416204206870E5E78268154B1A4036
:1048A0008260226890686368A6691843236933436D
:1048B000184390602268E0681061206802692389CB
:1048C0001B041A4302612068C26880239A43C260B5
:1048D0002068C26C92089200C264E2696069024377
:1048E0002068C36C1A43C26420684162012068706A
:1048F000002070BDBFFF8FFF00B597B0042000906F
:1049000000200A90FF20013002906846FFF7A6FCC5
:10491000002801D0FEF7E8F920200E90C0020F9089
:104920000EA8FFF7C5FA002801D0FEF7DDF9084808
:104930000169012292041143016100221146022003
:10494000FFF788F90220FFF77BF917B000BD0000E0
:1049500040100240FEB506460446203630780B462D
:10496000012842D0012030700220707020681D465E
:10497000002720358068002A39D0400655D51878A0
:1049800004F03CFB287804F039FB19789878090486
:1049900008435978DA780902120411430843297848
:1049A00009060843D96908435969084305469969C6
:1049B0005868084300902168CA2048622168532043
:1049C0004862FF205A6A0130802182424AD122681F
:1049D0009368834393602268D0680840FF38823828
:1049E000D060FFF7BDF8019029E00220FEBD40062F
:1049F00000D4DF70187804F009FB0204587804F042
:104A000005FB00020243987804F000FB0243D878CB
:104A100000040243287804F0F9FA00060243D8693A
:104A20000243586902431546C1E7DF70AAE7FFF762
:104A300097F80199411A7D20C00081422AD8206848
:104A4000C068C007F3D02068C56121680098486439
:104A500020688168FF2201321143816020688168EB
:104A6000120130E02068826801235B029A43826071
:104A70002068C2680A401D495118C160FFF770F8EC
:104A800001900EE0FFF76CF80199411A7D20C000FB
:104A9000814206D92168FF20486203207070377078
:104AA000FEBD2068C0688007ECD5206805622168DB
:104AB0000098886420688168012252021143816055
:104AC0002068816812011143816009480268012150
:104AD00049040A43026082680A4382602168FF2019
:104AE00048620120707037700020FEBD7FFDFFFF1F
:104AF00000040140F8B505460446203528780B46E9
:104B0000012815D001202870022068705878002AEA
:104B100010D004F073FA987804F070FAD8789E7880
:104B2000000406435878197800024903084316E048
:104B30000220F8BDC10603D5EF2108400A305870A5
:104B4000D87804F063FA0604587804F05FFA00029B
:104B50000643987804F05AFA06431878400306434F
:104B60002168CA204862216853204862204604F028
:104B700058FA0027002811D11048064020684660E6
:104B80002068C16880229143C160206880688006E7
:104B90000CD4204600F08CF8002807D02168FF20B4
:104BA0004862042068702F700120F8BD2168FF2042
:104BB0004862012068702F700020F8BD3FFFFF00A1
:104BC000F8B506460446203630780D4601280ED04A
:104BD0000120307002207070206800278068002A51
:104BE00007D040061AD5287804F008FA17E002200A
:104BF000F8BD400600D4EF70287804F007FA0204EC
:104C0000687804F003FA00020243A87804F0FEF981
:104C10000243E8780004024300920BE0EF70297829
:104C2000A878090408436978EA7809021204114354
:104C3000084300902168CA204862216853204862D6
:104C4000204604F0EEF900281FD1184900980840CA
:104C50002168086020688168012292049143816084
:104C60002969E868084321688A68104388602068D9
:104C7000C16880229143C1602068806880060CD49E
:104C8000204600F015F8002807D02168FF20486270
:104C90000420707037700120F8BD2168FF20486241
:104CA0000120707037700020F8BD00007F7F7F000A
:104CB00070B504460068C168A0229143C160FEF748
:104CC0004FFF7D260546F60006E0FEF749FF401B34
:104CD000B04201D9032070BD2068C0688006F4D5B9
:104CE000002070BD70B5040006D025464035687CB4
:104CF0000026002802D005E0012070BD2E74204659
:104D000000F032F802206874206801684022914364
:104D10000160A168606822690843E16811430843A3
:104D2000616901220843A169520211400843E16907
:104D30000843216A0843A16A084321680860A06902
:104D40000421000C0840616A08432168486021681A
:104D5000E06A08612068C16992009143C16166659B
:104D600001206874002070BD7047F8B50446002724
:104D70006846078026464036707C012802D0707C49
:104D800022287ED100290CD0002A0AD0002B08D07E
:104D9000307C012875D001203074707C012802D04D
:104DA00003E00120F8BD322070746765A263A38719
:104DB000E3872163A386E386A764E7640125A06AED
:104DC0006D03A84207D120680168A94301602068EB
:104DD00001682943016020680168490603D401681D
:104DE0004022114301600121FF20E268C902053021
:104DF0008A42616866D1002904D081420CD1E08EDC
:104E0000012809D1206B21680088C860206B801CB4
:104E10002063E08E401EE086E08E002843D1A06A29
:104E2000A84246D1206801680122120311430160A3
:104E30003FE02068C068A16B0880A06B801CA06365
:104E4000B0E0002202212046069B05F0DDF9002893
:104E50007DD1206B21680088C860206B801C206396
:104E6000E08E401EE086E08E002808D1A06AA842AD
:104E700005D120680168012212031143016000225C
:104E800000E0CCE001212046069B05F0BDF900289A
:104E90007FD12068C068A16B0880A06B801CA063D4
:104EA000E08F401EE087E08E0028CAD160680028AD
:104EB0007BD1002201212046069B05F0A5F90028A0
:104EC00067D1B6E7002904D081420BD1E08E0128DA
:104ED00008D1206B411C216321680078C860E08EF6
:104EE000401EE086E08E002845D1A06AA84205D188
:104EF0002068016801221203114301600022012190
:104F00002046069B05F080F9002842D12068C06841
:104F1000A16B087046E0002202212046069B05F0A6
:104F200073F9002835D1206B411C2163216800787A
:104F3000C860E08E401EE086E08E00280AD1A06A9C
:104F4000A84207D1206802680121090300E020E09F
:104F50000A430260002201212046069B05F054F915
:104F6000002816D12068C268A06B411CA1630270A2
:104F7000E08F401EE087E08E0028CCD160680028DA
:104F800013D1002201212046069B05F03DF900289F
:104F900002D00320F8BD08E02068C168A06B421C65
:104FA000A2630170E08F401EE087A06AA8420FD183
:104FB000002201212046069B05F026F9002802D098
:104FC000606D02210EE02068C0686946088008888C
:104FD000012280212046069B05F016F9002804D006
:104FE000606D202108436065D3E701207074A06ADA
:104FF000A84211D120688168C943C9060CD4616DEB
:105000000222114361650168A943016020680168BB
:10501000294301603774C4E637740020BAE70220E0
:10502000B8E702462032137D012B07D00123137508
:1050300000680165537500201075704702207047A5
:1050400010B500210F4800F0DBF90F4CA268214693
:1050500053005B18521CA2601880A06802280FD36E
:105060004A8808880021C943081A401C101881B2D8
:1050700006480068FBF73CF860606068C00060604C
:1050800010BD000068020020080000205000002031
:10509000F8B5064604462036307D0D4601283DD041
:1050A0000120307502207075002A39D0042A46D0BC
:1050B000082A57D02B68297B20689E468C466B684F
:1050C000016A0122120391430162C169026A032746
:1050D0003F02B9431B020B430F2109038B43614677
:1050E0000907090C194305235B039A4373460A27F2
:1050F0003B401B031343C16103622068C169032263
:1051000092029143C1612068C169AA6812021143E9
:10511000C1610120707500203075F8BD0220F8BD16
:10512000EB6806CD083D206807F034F820688269F6
:105130000C218A43826120688169AA680FE0EB68CC
:1051400006CD083D206807F053F8206882690321E6
:1051500089028A43826120688169AA681202114328
:105160008161D6E788CD287921688446086AFF22C4
:10517000013290430862C8690A6A80088000384397
:10518000F027B84367463F073F0E0743052040021C
:1051900082430A20034018021043CF61086220684E
:1051A000C1690C229143C1612068C1692A68AEE7D8
:1051B00010B5022104462034617501680A6A064B65
:1051C0001A4203D10A68520852000A6000F020F81F
:1051D00000206075207510BD1111000070B504002D
:1051E00005D025462035687D002802D006E0012044
:1051F00070BD00202875204600F00CF8022068756C
:10520000211D206806F08AFF01206875002070BD0E
:105210007047000010B50748416B042211434163F9
:10522000002204211420FEF715FD1420FEF708FDCE
:1052300010BD00000010024010B5026804460029AD
:1052400006D0042907D0082914D00C2907D114E06E
:10525000D068022301E0D06804231843D060012203
:10526000206806F08BFF206801680122114301606D
:10527000002010BDD0680823EFE7D0681023ECE7CA
:1052800010B502680446002906D0042907D0082971
:1052900018D00C2907D118E0D068022301E0D068AB
:1052A00004239843D0600022206806F067FF20683E
:1052B000016A074A114203D10168490849000160A7
:1052C000002010BDD0680823EBE7D0681023E8E782
:1052D0001111000070B50446006801690025C9433A
:1052E0008907002915DBC168C943890711D4E91E64
:1052F000016101202075206880698007204602D066
:10530000FFF79EFE04E000F078F8204600F076F803
:10531000257520680169C943490717D4C168C94385
:10532000490713D40421C943016102202075206874
:1053300080698005800F204602D0FFF781FE04E0DF
:1053400000F05BF8204600F059F8257520680169E7
:10535000C943090716D4C168C943090712D40821F3
:10536000C9430161042020752068C0698007204678
:1053700002D0FFF765FE04E000F03FF8204600F0A1
:105380003DF8257520680169C943C90617D4C1686D
:10539000C943C90613D41021C943016108202075EF
:1053A0002068C0698005800F204602D0FFF748FEC4
:1053B00004E000F022F8204600F020F8257520686F
:1053C0000169C943C90708D1C168C943C90704D1E4
:1053D000891E0161204600F012F820680169C94366
:1053E000490609D4C168C943490605D44021C943C7
:1053F0000161204600F027F870BD70477047704784
:1054000010B5034620331C7D0022012C0AD0012454
:105410001C75002908D0042909D008290AD00C29B4
:105420000DD10AE0022010BD0068426B07E0006861
:10543000826B04E00068C26B01E00068026C00202F
:105440001875104610BD7047014660310A7A012A6E
:105450000DD001220A7224224A72006802680223D7
:105460001A43026020204872002008727047022010
:1054700070470000FEB5054604466035287A0026D0
:105480009446012811D001232B72242068722068D1
:1054900002689A4302602768B868032212059043A5
:1054A0000843B860002902D015E00220FEBD604626
:1054B0000091019021686A46928848681027B84395
:1054C00010434860206841686A4609029279090AD7
:1054D0001206114341602068016819430160FEF71C
:1054E0003FFB09490091034601210022890520461E
:1054F00007F08BFA002801D0032601E02020687213
:10550000002028723046FEBDFFFFFF017047704744
:10551000F8B502680446D06911680607360F07D14E
:10552000830605D58B0603D5204607F0E3F8F8BDC2
:1055300095682023002E65D0EE07F60FFF27213750
:105540000F4037435ED0C70706D0CF0504D50127EB
:105550001762E26E3A43E266820708D5EA0706D090
:10556000276802223A62E26E04273A43E266420763
:1055700008D5EA0706D0256804222A62E26E0225D1
:105580002A43E266020709D50A461A40324305D08B
:10559000236808221A62E36E1343E366E26E002A70
:1055A000C5D0800604D5880602D5204607F0A2F8AB
:1055B000E06E000703D42068806840061CD52046B2
:1055C00007F080F820688168490611D5826840217B
:1055D0008A438260606E00280AD01D498163606E34
:1055E000FDF746FF0028A2D0606E816B8847F8BDAA
:1055F0002046FFF78CFFF8BD2046FFF788FF00200C
:10560000E066F8BD2646C7026036002F0ADA6D0252
:1056100008D50120000510627372B3722046FFF7AF
:1056200075FFF8BD050605D50D0603D5204607F024
:10563000B9F9F8BD4006FCD54806FAD520461468ED
:1056400040218C431460737200F04AF9F8BD0000E9
:105650002DC6000870B5040005D025466035687A6F
:10566000002802D006E0012070BD002028722046EC
:1056700000F026F824206872206801684908490073
:105680000160606A002802D0204606F039FF2046FB
:1056900007F070F80128E7D0206841680922D2029B
:1056A00091434160206881682A229143816020688B
:1056B0000168012211430160204606F087FF70BD9A
:1056C00070B50546006827498AB0884248D1264C03
:1056D000E06A01263043E062E06A30400990E06A07
:1056E0003043E062E06A30400990A06BB1040843A7
:1056F000A06324216846FAF7ABFD04200090400225
:1057000004906846FEF7D4FB206B30432063206B87
:10571000304009900BF064F8154C144820600021CB
:105720001020E160A0606161A161E16180202162DF
:105730002061052060602046FEF726F82C660122D5
:1057400011460B20A562FEF785FA0B20FEF778FACA
:10575000012211461D20FEF77DFA1D20FEF770FA8A
:105760000AB070BD004800400010024080000240B6
:1057700090070020F0B5034660339C7A202C44D17A
:1057800000290BD0002A09D0012584682D03AC42E2
:1057900006D10669002E03D1CE0701D00120F0BD4D
:1057A0001E7A012E31D001261E724165014640311C
:1057B0000A834A83FF27AC4204D10269002A12D12E
:1057C000134A0EE07F22002C08D001252D07AC42A1
:1057D0000AD10469002C04D03F2202E00469002CA5
:1057E00001D08A8300E08F830021C16622229A7251
:1057F000197201688A6832438A6000680168FF2272
:105800002132114301600020F0BD0220F0BD0000F4
:10581000FF01000010B504460068094988420DD117
:1058200008488168002904D0E06E002801D10548AD
:105830008847012203492046FFF79CFF10BD000066
:1058400000480040E0000020F8B5054604466035F9
:10585000687A20283BD100290BD0002A09D00123E7
:10586000A0681B03984206D12069002803D1C8070D
:1058700001D00120F8BD287A012828D00120287203
:1058800020464030E164028242820026E666212002
:105890006872216E0F48C862216E0F480863216E3E
:1058A0000E484863206E134686632768E16C3A46CB
:1058B0002832206EFDF7ECFF2168402008622E722E
:1058C000206881688022114381600020F8BD022099
:1058D000F8BD00008BC60008BBC6000841C6000822
:1058E00002484068002800D000477047E0000020D0
:1058F0007047000010B51248017800291ED101221E
:10590000027011480F49016000210164C161D30791
:105910008161436082638160C160016207234162EB
:10592000C3630261C1620422426101630748416BA3
:105930004215114341630448FDF712FC10BD0000FD
:10594000DC0000200024014030070020001002404D
:105950007CB51E49064609780020002934D01C4831
:105960004168C9430907FBD41A4C606B651528438D
:10597000606300211848FDF74FFB18480090184855
:10598000019069461448FDF79DFBA01401906946FB
:1059900000961148FDF796FB0F48FDF723FD002107
:1059A000C9430D48FDF7BFFC0B48FDF7D5FB0A497D
:1059B00080B20A6893680226334393600968032221
:1059C0000A60616BA94361637CBD0000DC000020BC
:1059D000007000400010024030070020FFFF070069
:1059E00001100000014600200A0A00D00820084AE1
:1059F000114201D004221043064A114201D0022272
:105A00001043054A114201D00121084370470000AC
:105A1000F0F00000CCCC0000AAAA000038B50B239F
:105A20001B07C518114B0FD01C152D1B18D02D1B93
:105A300019D0A542DD6A05D108242543DD62DB6A61
:105A4000234007E08024F8E7DC6A01252C43DC6270
:105A5000DB6A2B40009311601146FDF7AFFF38BDA4
:105A6000DD6A0224E9E7DD6A0424E6E7001002406B
:105A700010B5FFF7B7FF810002484058002800D05A
:105A8000804710BD5C04002070B51C4615460E46CC
:105A90000846FFF7A7FF0A49002C0DD080000C50E4
:105AA000304601F0A9FE044600222946FEF7D2F84E
:105AB0002046FEF7C5F870BD002280000A5070BD78
:105AC0005C04002010B5D2B2FEF743F810BD000010
:105AD00010B51248FFF73CFF114C01000CD01148E3
