:020000040800F2
:10000000F81A0020D5000008C9BB0008058E0008BA
:1000100000000000000000000000000000000000E0
:1000200000000000000000000000000093F900083C
:1000300000000000000000007DCF00082130010812
:10004000E7000008E7000008F5D90008E70000080D
:10005000E7000008E5390008F5390008053A00080E
:10006000E7000008E7000008E7000008413000084A
:10007000E7000008E7000008E7000008E7000008C4
:100080001D310108E7000008E7000008000000003B
:1000900015310108E7000008E7000008E700000844
:1000A000E7000008E7000008E7000008CD3F01086E
:1000B000E7000008EDD9000800000000E700000894
:1000C0000348854600F010FF00480047B96C01085E
:1000D000F81A00200448804704480047FEE7FEE77E
:1000E000FEE7FEE7FEE7FEE7C5300108C1000008B5
:1000F000F0B51FB40646002082B0054640240191A9
:1001000000901BE0019922460F46304600F022FD88
:10011000049A059B801A994110D31046194622462D
:1001200000F008FD361A8F41019722460120002178
:10013000009F00F0FFFC38184D4100902046641EDF
:100140000028DFDC019B00982946324607B0F0BD4D
:1001500030B5434351435C18010C130C0D465D430D
:100160002C1980B292B20546554351430A0C09043A
:100170004D1962415843010C00044019514130BDF2
:1001800003460B439B0703D009E008C9121F08C0B0
:10019000042AFAD203E00B780370401C491C521E5B
:1001A000F9D27047D2B201E00270401C491EFBD266
:1001B00070470022F6E710B513460A460446194672
:1001C000FFF7F0FF204610BD421C0178401C0029BB
:1001D000FBD1801A704710B5002200E0521C835CEE
:1001E0008C5CA34201D1002BF8D1D8B2E1B2401A05
:1001F00010BD30B505460020034600E05B1C93426D
:1002000005D2EC5CC85C201A01D1002CF6D130BDBF
:100210000FB400B58DB009900B9010A9002000918B
:10022000C0430A9000200C900648069006480790AC
:100230006A4609A80F9900F0C7FC0DB008BC04B0CD
:1002400018470000E90B0008090C0008FFB500275B
:10025000FF4383B000205C6801909E681D46A96939
:100260007F1C049888470090296A88470028F6D1A7
:100270000098401C0CD0032040028443002E19DD5E
:10028000600614D500982B2809D02D280FD103E043
:100290000020C04307B0F0BD012080020443A969DB
:1002A0007F1C04988847761E0090002E02DD00987F
:1002B000302803D00598002825D035E001204002E1
:1002C0000443A969761E7F1C049888470090002E7D
:1002D00003DD782805D0582803D00598002810D0D1
:1002E00022E00598002801D010281DD101204002ED
:1002F0008443A969761E7F1C0498884700901020CB
:1003000002E0082000E00A2005900DE001214902EA
:100310000C43059A0199761E514308180190A9696A
:100320007F1C049888470090002E05DD05990098F1
:1003300000F034FC0028E9DAE96904988847A00550
:1003400002D40120C043A5E7E00722D1600611D501
:100350006005019800D5404229680A1D2A60096895
:10036000220501D5087014E0220701D5088010E0AD
:1003700008600EE02868011D29600068210502D58B
:100380000199017005E02107019901D5018000E084
:10039000016038467EE770B5064618F001FA046839
:1003A00005460A220021304600F040FC2C6070BD5A
:1003B000F8B502464A40D40F42004B0052085B0891
:1003C0009A4202D20246084611464A0023D0C30D83
:1003D0004A00DDB2120EAD1A202D35DA490201268F
:1003E000490AF6058A19002C00D0524220214F1BE1
:1003F0001146B9402A411018C20D9A4221D0002C52
:1004000017D0012D08DCDA05801AD20F8019D20727
:10041000DBB200F04BFCF8BDDA05801A0123400086
:100420001B06C01880185A428018CA0F1043490092
:1004300007E04908C2071143DA05801A801940080D
:10044000801800F02BFCF8BD61000122511A001B3E
:10045000F7E70122D2075140AAE70122D207504014
:10046000A6E7024670B54A40D30FDB0740002DD007
:100470004A002AD0010E140E000212020919400A85
:10048000520A8418E50104465443000A120A2E0455
:100490005043A4194219200CC543AA18120C012577
:1004A000AD03521C521912047F39240400D0521C8F
:1004B000104301D44000491EC2B20C06C0092018E6
:1004C000401C4008802A02D003E0002070BD400894
:1004D0004000002900DA0020184370BD70B50246C4
:1004E0004A40D50F40004A00ED0740085208002856
:1004F00014D0002A12D0C40DD30D41020120C00532
:100500005202490A520AE41A091812187D3491421B
:1005100001D3641C00E04900002C01DA002070BD0A
:100520000023914201D3891A03434008490000285F
:10053000F7D100290AD0914202D10121C90705E073
:10054000914201D2012101E00121C943E005C01817
:10055000401900F0A3FB70BDF0B5074608465840AF
:1005600087B0C00F049048000E4659004008490863
:10057000BC1A884105D2384631461E4617460B46FE
:1005800002465800400810434CD0300D03904005FF
:100590005900400D490D0590401A0290402872DA2A
:1005A00018030121000B09050843019004980092EB
:1005B000002805D001995242002088410092019004
:1005C000029840210A1A0199009800F0B3FA0546F2
:1005D0000C466B4607CB00F0CEFAC0197141039A66
:1005E0000E0D0023D71756401A467A40164344D0C2
:1005F000049A002A2DD0029A012A039A15DC1205CA
:10060000C01A914101263605001C7141D20F059E8A
:10061000D2070093019202962A46234600F08CFBF3
:1006200007B0F0BD38463146FAE71605224A0F46B4
:10063000B218C01AB74101210905001C4F4100182A
:100640007F41114618187941E20F10436D1964413A
:1006500013E0E2076D0815436408C2071443039AC8
:1006600001261205C01A91413605001C7141CE07C2
:10067000400830434908C01851412A46234600F03B
:100680004EFBCDE7FFE7049801224000C117121A84
:1006900000238B4104983146C417381AA141EEE774
:1006A00030B40124E407634030BC55E730B4012482
:1006B000E407614030BC4FE70000E0FFF0B51FB435
:1006C00088B00B990998002448400999C00F490047
:1006D00049080991C0070B990090490049080B91FE
:1006E00009990898A64608431CD00B990A98084314
:1006F00018D0099801244000420D4800410D099886
:1007000024050003000B204309900B980003000B05
:1007100020430B9050181C494018002201901446A9
:10072000104605E0002001460DB0F0BD032801DAB7
:10073000034600E003239C46C11A0AAE0AE05F00AC
:1007400008ADED5B4F00F75B7D430027AA187C41A5
:10075000491C5B1E6145F2DD410004AB5A52210485
:10076000120C0A43240C401C0828DFDB019802907D
:100770000099704601910090059B049A079906988C
:1007800000F0DAFAD0E700000DFCFFFFF0B50C46F0
:100790005C4085B0E40FE40703944C000026640835
:1007A00059009446490802460296224321D06246E7
:1007B0000A431ED06200570D4A000E032303550D55
:1007C000012402462C492405781B1B0B360B4018CC
:1007D00023432643614600901C46501AB44103D37C
:1007E0000098401C009002E0921800985B4100289D
:1007F00003DA0020014605B0F0BD00200121090503
:100800000746864611E064461D46141BB54106D3D3
:100810006546521BB341744607430C43A646CD07B9
:1008200040084908284392185B4105460D43EAD128
:100830001046184313D06046194650407140084393
:1008400006D06046101AB34106D20122002306E00A
:1008500000220123DB0702E00122D243531000985B
:1008600074460105381C6141029C039D00196941D1
:1008700000F055FABFE70000FD0300000122D20797
:10088000002800DB101A002900DB511A814201D335
:1008900001207047002070470122D207002800DBAA
:1008A000101A002900DB511A814201D9012070473A
:1008B000002070470122D207002800DB101A00290F
:1008C00000DB511A814201D101207047002070479E
:1008D00010B5002904DB0C460121C9074042A141A3
:1008E000002B04DB1C460123DB075242A341801A84
:1008F000994101D2012010BD002010BDC217C10FC7
:10090000504010B54018CA079623002100F0CEF9D8
:1009100010BD10B500229623114600F0C7F910BD96
:100920000EB5C217C10F5040CA0740180021054B31
:100930000293019200910A460B4600F0FDF903B0C4
:1009400000BD0000330400000EB5054902910021EE
:1009500000910A460B46019100F0EEF903B000BD8C
:1009600033040000C20F410040020123400ADB05AE
:10097000D207090EC0187F2901DA00207047962996
:1009800003DC9623591AC84001E096398840002AB2
:10099000F4D040427047410040020122400AD20593
:1009A000090E80187F2901DA00207047962903DCA0
:1009B0009622511AC8407047963988407047000007
:1009C00070B5CD0F4A0009030123090B1B0519431C
:1009D0000B4BED070024520D9A4201DA002070BD46
:1009E000074B34339A4203DC9A1A00F0B3F802E062
:1009F0000449511888402C43F1D0404270BD00009A
:100A0000FF030000CDFBFFFF4A0009030123090B90
:100A10001B051943094B10B5520D9A4201DA00200B
:100A200010BD064B34339A4203DC9A1A00F092F858
:100A300010BD03495118884010BD0000FF0300009D
:100A4000CDFBFFFFC20FD207400040080BD0C10D05
:100A50000723DB01C91840020905400A1143C208F7
:100A6000400711437047002001467047CB0FDB075A
:100A7000490010B5490802460A4307D00A0D072469
:100A80000903E401090B121B002A01DC002010BD40
:100A9000C900440F0C43C100E018D205801800F0D3
:100AA000FDF810BD70B50446002903D000202022B7
:100AB000012310E0002801D00020C043C046C046FA
:100AC0000DE02546D5408D4205D30D469540641B6B
:100AD0001D46954040191546521E002DF1DC214659
:100AE00070BD000070B5002504462E46002911D0C7
:100AF000002C01DA01254442002901DA012649428D
:100B00002046FFF7CFFFB54200D04042002D00D075
:100B1000494270BD002C02DA0121C90702E0002C15
:100B200000DD03490846C046C046214670BD0000AE
:100B3000FFFFFF7F10B5202A04DB0146203A9140D9
:100B4000002010BD914020239C1A0346E340194326
:100B5000904010BD10B5202A04DB0846203AD04052
:100B6000002110BD0B46D340D0402024A21A914052
:100B70000843194610BD10B5202A06DBCB170846DE
:100B8000203A1041C1170B4306E00B461341D040F9
:100B90002024A21A91400843194610BD3A2800D2D9
:100BA0003038202302469A43412A01D31046373871
:100BB000884201D30020C0437047000002681378C8
:100BC000511801601846704710B5D1600449516151
:100BD0000449116200211161114600F0ABF910BD0A
:100BE000BD0B0008210F00084268002A08D00168E8
:100BF0000B78491C002B03D0521E06C018467047C4
:100C00000121C160881E70474268002A0BD0C3686A
:100C10000168002B07D183688B4204D0491E521C07
:100C200006C0002070470020C0437047F7B5009C05
:100C30000F4600262578641C002D05D000F06CF9C5
:100C40000068405DC007F5D12B2D02D02D2D18D0A6
:100C5000641E39462046029A00F008FB002F04D09B
:100C60003968A14201D10099396071050224002937
:100C70000BDA4042002803DD17F092FD0460A00764
:100C8000FEBD012080020643E3E70028F8DA17F0F2
:100C900087FD04600048FEBDFFFFFF7F002904DAE6
:100CA000401C490001D140084000704770B4002446
:100CB000050C05D11024000402D1002921D01124F3
:100CC000050E01D100020834050F01D10001241DD9
:100CD000850F01D18000A41C002801DB4000641CAA
:100CE000002908D020252E1B0D46F540A14000D03C
:100CF00001212943084301061B1B000ADB1D02D505
:100D0000002070BC7047DB05181880180029F8DA3D
:100D1000401C4900F5D170BC40084000704710B538
:100D2000002B08DA0024401C614192185B411A43F1
:100D300001D14008400010BDF0B51FB482B0054697
:100D40000C0003D0084617F013FD02E017F010FD69
:100D500020300246009021462846FFF7EBFE049B18
:100D6000059A04460F4618431143084314D0184609
:100D700010431BD0009840210A1A18460599FFF726
:100D8000E9FE05460E46009A05990498FFF7D2FE43
:100D9000084305D0012004E02046394607B0F0BDE5
:100DA0000020C11705430E432C43374300990E988A
:100DB0006305401A7905E40A00220C43FD0A0A3053
:100DC00002D500200146E9E70105101969410C9C94
:100DD0000D9D00196941FFF7A2FFDFE7F8B5054651
:100DE000480040080C46284304D06000184A400DD3
:100DF000904201DD2846F8BD15493539884210DC9E
:100E000088420BDB290D200308432903014305D049
:100E1000E00F1049C00741180020F8BD002001462E
:100E2000F8BD161A4020821B28462146FFF782FE95
:100E300007460091284621463246FFF78BFE3A4688
:100E4000009BFFF76CFF3246FFF774FEF8BD000011
:100E5000330400000000F03F4A0009030123090B9E
:100E60001B0519430A4B10B5520D9A4202DA0020B5
:100E7000014610BD064B34339A4203DC9A1AFFF741
:100E800069FE10BD034BD218FFF754FE10BD0000E1
:100E9000FF030000CDFBFFFF10B5002904DB012498
:100EA000E40740428C412146002B04DB1C46012311
:100EB000DB075242A3418B4200D1824210BD0000A9
:100EC00010B5002904DB0124E40740428C4121468F
:100ED000002B04DB1C460123DB075242A34199424D
:100EE00000D1904210BD00001CB50948009009488F
:100EF000019005460126009C05E0E36807CC3343DA
:100F00000C3C98471034AC42F7D3FFF7DDF80000F3
:100F10007CB201089CB2010800487047AC930108FC
:100F200010B50446FFF7F8FF0068005DC007C00F6A
:100F300010BD0000F3B58DB000200A9001200B9089
:100F4000002608460C300C46099062690121099878
:100F50009047051E2ED0252D2DD0216A88470028C8
:100F600018D06269012109989047216A88470028B2
:100F7000F7D1411E62690998904700E0761CA1698B
:100F80000D988847216A88470028F7D1E1690D98B4
:100F90008847DAE7A1690D9888470746A84201D13A
:100FA000761CD2E7E1690D9888477F1C02D10A9828
:100FB000002877D049E1002762693D463946099803
:100FC00090472A280CD16269012109989047012590
:100FD00006E00A214F433F18303FEBD41020054371
:100FE0006269012109989047014630390A2903D2E4
:100FF0009B498F42DEDCECE7E90600D4994F6C2870
:101000000AD04C2810D0682824D06A282ED0742802
:101010000CD07A280AD00DE0626901210998904726
:101020006C2823D004211CE02020054362690121A3
:1010300009989047A760656065284FD026DC58283E
:1010400039D01ADC452849D012DC252834D0412873
:10105000B0D143E06269012109989047682802D025
:1010600008210D43E6E70120C002DEE70220DCE7AD
:10107000462833D047282CD130E05B2870D0612837
:101080002CD063286CD0642823D161E06F284FD026
:1010900009DC662822D0672820D0692826D06E284F
:1010A00017D12EE0CDE070284DD073286FD0752871
:1010B0004ED078280DD154E0A1690D988847054697
:1010C000252800D16CE7E1690D9888476D1C00D197
:1010D0006DE7BAE00A224CE00A2252E001202346E2
:1010E0006A46C0430D99C046C046A3E02846402149
:1010F00008436060A807234601D5002239E000229A
:101100003FE0E80700D020E72068011D216000686B
:10111000290501D5067018E7290701D5068014E7CF
:10112000A90703D5F117066041600EE706600CE7DA
:101130002846402108436060A807234601D50822BD
:1011400017E008221DE0484928460840606016E084
:101150002846402108436060A8072346BCD5B9E76C
:1011600015E02846402108436060A80707D52346BC
:1011700010220120C0430D99C046C0465AE02346C4
:1011800010220120C0430D99FFF760F852E00021C2
:101190000C910B460091632802D05B2807D043E0F6
:1011A000E80601D40120A060012000903CE06269C3
:1011B0000121099890475E2805D101200C90014635
:1011C0006269099890472169002906D10B4601AA56
:1011D0008F00491CD3510829FADB002835D021693A
:1011E00000290ED1C117C90E09184A11930001AA8E
:1011F0009A1849094901411A01201368884003439C
:10120000136062690121099890475D28E5D10C9827
:10121000002808D0002001AB81005A58401CD2435E
:101220005A500828F8DB01AB01202246C0430D9933
:10123000C046C04600280ADA401C06D10B98002898
:1012400003D00020C0430FB0F0BD0A98FBE7E907C8
:1012500002D10A99491C0A91361800200B9074E6B5
:10126000CCCCCC0CFFFFFF7FF1F7FFFFF7B582B0CE
:10127000029C00272078641C15460197302802D074
:10128000002D15D015E020780127641C782804D0A3
:10129000582802D0002D09D00BE0002D01D0102DD0
:1012A00007D1002710252078641C02E0082500E003
:1012B0000A250026009610E00099012769430818C6
:1012C000020C294680B2714300908E183804864281
:1012D00001D3012001902078641C2946FFF75EFCB1
:1012E0000028E9DA0398002805D0002F01D0641EF9
:1012F00000E0029C04600198002806D017F050FA24
:1013000002210160C81E05B0F0BD009930040843F9
:10131000F9E710B5044600F00AF8A08861880818BB
:10132000E188401821894018800880B210BD10B5AE
:10133000418803888B423CD94380018000221946B2
:101340008388994239D81946C38899423BD81946AF
:10135000038999423DD81946438999423FD8002ACA
:1013600000D010BD418803888B423ED94380018064
:1013700000221946838899423BD81946C38899426E
:101380003DD81946038999423FD8002AE9D14188BE
:1013900003888B423FD9438001800022194683880D
:1013A00099423CD81946C38899423ED8002AD8D1E0
:1013B0003DE0012283889942C5D981804380002283
:1013C000C3889942C3D9C18083800022038999428E
:1013D000C1D90181C380002243899942BFD941818B
:1013E0000381418803888B42C0D8012283889942B7
:1013F000C3D9818043800022C3889942C1D9C1806A
:101400008380002203899942BFD90181C38041882A
:1014100003888B42BFD8012283889942C2D9818038
:1014200043800022C3889942C0D9C180838041880B
:1014300002888A420B4602D9428001801346848882
:10144000A34202D98380448001E08A4289D941883D
:1014500002888A4285D94280018010BDF0B59DB0D6
:101460000C46059019AF002510223846294616F083
:10147000F9FB38463946224612F02EFE01957A577E
:10148000500079780B06DB0FC6183E704800B9781B
:101490000B06DB0FC018119078704800F9780B0626
:1014A000DB0FC0180F90B87048001A990B06DB0FBD
:1014B000C0180E90F870480079790B06DB0FC01841
:1014C0000C9038714800B9790B06DB0FC0180A90F0
:1014D00078714800F9790B06DB0FC0180890B871D5
:1014E00048001B990B06DB0FC0180790F8714800E5
:1014F000797A0B06DB0FC018099038724800B97A68
:101500000B06DB0FC0180B9078724800F97A0B06B7
:10151000DB0FC0180D90B87248001C990B06DB0F4A
:10152000C0180290F8724800797B0B06DB0FC018D8
:10153000039038734800BD7B2906C90F40181090EE
:1015400078737820C043F97B4B00002A00D54340D4
:10155000FB736A000906C90F5518BD7345218F003A
:10156000E25976B22146F131102A069461D1087C05
:10157000464004960E74487C119A424011924A7477
:10158000887C0F9A42400F928A74C87C0E9A42401F
:101590000E92CA74087D0C9A42400C920A75487DDE
:1015A0000A9A42400A924A75887D089A42400892F7
:1015B0008A75C87D079A42400792CA75087E099AC3
:1015C000424009920A76487E0B9A42400B924A7634
:1015D000887E0D9F47408F76C87E029E4640CE761D
:1015E000087F039C44400C77487F109A42404A771A
:1015F000887F45408D77C87F4340CB771493139500
:101600001292109430460B9A0D92099A0B92079AF7
:101610000992069C089A07920A9A08920C9A0E9BC5
:101620000C933D4613460F9E074611980F90049A5F
:10163000E9E01490E719A018FF22023280248454B4
:101640005C000496002E01D51498444019A8149407
:10165000C4736C001B06DB0FE31813938373109E97
:1016600073002C06E40F1B1912934373039D6B0048
:101670003406E40F1B1910930373029E73002C06AB
:10168000E40F1B190393C3720D9D6B003406E40F26
:101690001B19029383720B9E73002C06E40F1B1917
:1016A0000D934372099D6B003406E40F1B190B93D5
:1016B0000372079E73002C06E40F1B190993C37174
:1016C000089D6B003406E40F1B19079383710A9B76
:1016D0005E002C06E40F3419089444710C9D6E00D2
:1016E0001C06E40F33190A9303710E9B5E002C064F
:1016F000E40F34190C94C4700F9D6E001C06E40FA7
:1017000033190E938370119B5C002D06ED0F641945
:101710000F944470049C65001C06E40F2C192546A8
:1017200004703868401C38600F28069C019B1BD849
:10173000201883543868401C38600F2814D82018AB
:1017400083543868401C38600F280DD82018835403
:101750003868401C38600F2806D820188354386831
:10176000401C38601028E3D3087C2A4642400A74A3
:10177000487C0F9B43400F934B74887C0E9B4340E7
:101780000E938B74C87C0C9D45400C95CD74087DE0
:101790000A9E46400E75487D089B434008934B7552
:1017A000887D079D454007958D75C87D099D4540FD
:1017B0000995CD75087E0B9D45400B950D76487EAD
:1017C0000D9D45400D954D76887E029B43408B765E
:1017D000C87E039F4740CF76087F109D45401095F7
:1017E0000D77487F129D454012954D77887F139D58
:1017F000454013958D77C87F149D45401495CD774E
:101800001D4633460E9E08785040087048780F9A5F
:1018100050404870887870408870C8780C9A504062
:10182000C8700879584008714879089A5040487142
:101830008879079A50408871C879099A5040C871D0
:10184000087A0B9A50400872487A0D9A50404872B4
:10185000887A68408872C87A7840C872087B109A83
:1018600050400873487B129A50404873887B139A03
:1018700050408873C87B149A5040C87315AF102627
:101880003846324616F080F938460599224612F05D
:1018900023FC19A80021324616F0E4F91DB0F0BD72
:1018A000B0B50446F13000251022294616F0DAF9C9
:1018B000452080002550F0222046294616F0D2F916
:1018C000B0BD80B50B4602461021184612F0E4FD6B
:1018D00080BDF0B587B013460D4606464520800012
:1018E0003158301800903746F137002901965FD003
:1018F000781810301022561A9E42344600D31C46E7
:10190000A2B22946029316F03FF90099086800191F
:10191000086002998E4200D3AEE0102800D2ABE0FE
:101920003878397C414039707878797C41407970D9
:10193000B878B97C4140B970F878F97C4140F970C9
:101940003879397D414039717879797D41407971B3
:10195000B879B97D4140B971F879F97D4140F971A3
:10196000387A397E41403972787A797E414079728D
:10197000B87AB97E4140B972F87AF97E4140F9727D
:10198000387B397F41403973787B797F4140797367
:10199000B87BB97F4140B973F87BF97F4140F97357
:1019A00038463946019A12F097FB029B1B1B2D19F2
:1019B000112B56D3029338782978414039707878C2
:1019C000697841407970B878A9784140B970F87861
:1019D000E9784140F970387929794140397178794D
:1019E000697941407971B879A9794140B971F8793B
:1019F000E9794140F971387A297A41403972787A27
:101A0000697A41407972B87AA97A4140B972F87A14
:101A1000E97A4140F972387B297B41403973787B00
:101A2000697B41407973B87BA97B4140B973F87BEE
:101A3000E97B4140F97303AE102430463946224613
:101A400016F0A2F830463146019A12F045FB3846AE
:101A50003146224616F098F8029B103B1035102BA9
:101A6000A8D8FF200230019908189AB229461C46CE
:101A700016F08AF80098046007B0F0BD70B50D4804
:101A80000021016201221A4B1A4CFE25F026046047
:101A900043608660C260016145618161C16103F09C
:101AA0008FFA002801D002F073F80248002103F0F9
:101AB00063FA70BD380B002070B5E5480021016263
:101AC00001220B4B0B4CFE25F02604604360866020
:101AD000C260016145618161C16103F071FA002852
:101AE00001D002F055F8DA48002103F045FA70BD44
:101AF000563EA1100054004080B586B000200590ED
:101B000004901A490A6802231A430A6009681940B6
:101B10000091039003200290102001900098C54886
:101B200001A903F053F906B080BDC04670B586B078
:101B3000002405940D4801680222114301600068E9
:101B4000104000900320049003940120029010257F
:101B500001950098B74E01A9304603F037F9304699
:101B60002946224603F0F9F906B070BD2C10024058
:101B7000F0B587B016F07EF9AB4C2078FD2101401E
:101B800001292FD106A8E721017005A8CC490180C1
:101B9000FFF774FFFF26F4367D20C70011F05EFCCE
:101BA0000446C84D0097802106AA0123284603F069
:101BB0003DFB002807D0204611F056FCB042F1D979
:101BC000C148002101700097BE48802106AA012467
:101BD000234603F02BFB002825D0BB4800780028C3
:101BE0002BD00FE1801E072800D90BE14000C04632
:101BF00078448088400087445900050105017D0034
:101C000005010700050107008848007802F092F9F5
:101C10008748007802F0C6F92078092800D0F1E062
:101C2000FFF76AFFEEE0A8480470A8A011F0C6FD17
:101C3000A5480078002800D0E4E062058F490868D4
:101C40000392104308600868A64A10400860794C67
:101C50004021204603F038F88021204603F034F874
:101C600000F092FD11F0FAFB05469F4C0097882189
:101C700005AA0223204603F0D9FA002807D02846F7
:101C800011F0F2FBB042F1D900208F4908700097A3
:101C90009548882105AA02252B4603F0C7FA00289B
:101CA0004CD0894D2878002851D0ABE004AF0026F5
:101CB0003E70604C20212046324603F04EF9FFF77B
:101CC000FBFE16F0F9FC7D20C00001250097019570
:101CD00002905F48C42132462B4603F0B3FC16F055
:101CE000EBFC654988425CD25AA065490D7011F041
:101CF00065FD82E04F4C202500222046294603F056
:101D00002CF912F0C5F912F08DF902F02DFAFF202E
:101D1000F430401C02F065FF02F026FA12F09EF942
:101D200012F066F901222046294603F016F942A472
:101D3000204611F043FD0028FAD163E062480570A7
:101D40006A4811F03BFD604D287800285AD14B4974
:101D50000868039A104308600868624A10400860E7
:101D60004021344C204602F0AFFF8021204602F093
:101D7000ABFF07F067F814F003FC0021FEF79AFDB3
:101D8000044607F045F8002C04D103202870584879
:101D900011F014FD2878002834D1564811F00EFDBA
:101DA00030E00125680535490A6802430A600A687F
:101DB00082430A604021204602F086FF80212046AF
:101DC00002F082FF02F07CF902F0B0F90520000772
:101DD000E90203F0BDF8002807D12948022101706B
:101DE00011F0A4F927A011F0E9FC02F04DF902F07E
:101DF00083F92348007800280CD0202101222046B6
:101E000003F0ABF83C48007802F05CF802F022F9ED
:101E100007B0F0BD14F0B2FD012802D12748032518
:101E200063E7254863E7C0463104002033040020FF
:101E300034040020000400500A0D557365205365DA
:101E40006E736F722069732048583731310D0A0064
:101E5000840B00200A0D5573652053656E736F72F5
:101E6000206973204C494441525F4C6974655F7628
:101E70003348500D0A0000000F27000028100240D0
:101E80005C0200200A0D5573652053656E736F72F6
:101E900020697320756C747261736F6E696320645E
:101EA000697374616E6365206D6561737572656DCC
:101EB000656E740D0A000000E59E0108799F010817
:101EC000F32D0000380B0020090100200A0D557386
:101ED000652053656E736F722069732053544832C6
:101EE000780D0A00FFFFDFFFC4010020AD9F01084D
:101EF000299E0108CA9E010832040020F0B5A1B055
:101F00000C46074606F04EFB01252E036905052009
:101F100000070890B348012C099706950794059689
:101F200004913CD1B0A4204611F048FC0028FAD11D
:101F3000AE4DAF4EAFA72888FEF706FD002422461F
:101F40003346FEF723FC024638460B4611F036FCBA
:101F50000028F0D1AB480078062859D0072860D077
:101F6000092800D083E0A84DA84E2968304611F01A
:101F700025FC0028F9D1A64DA6A62968304611F007
:101F80001DFC0028F9D1A84E1021089802F0E0FFAE
:101F90000146304611F012FC0028F5D174E00446E9
:101FA00007F048FD18960820139013A803F0BEFE12
:101FB0002068022108432060206808400A900A989F
:101FC000206808432060206808400A900A98E0686A
:101FD00004990843E0600E9503200D9000200C90BA
:101FE00012200B9040200A900AAC904E30462146B9
:101FF00002F0ECFE0E9580200A903046214602F059
:10200000E5FEFFF73BFD0DF087FB0446354680E01B
:102010007D4D7E4E2968304611F0D0FB0028F9D165
:1020200032E006988603824F804D2846314602F002
:102030008FFF0146384611F0C1FB0028F5D17DA67F
:10204000069FF903284602F083FF0146304611F04F
:10205000B5FB0028F5D1744E1021089802F078FFE6
:102060000146304611F0AAFB0028F5D10CE0069895
:1020700086036F4F6D48314602F06AFF01463846CD
:1020800011F09CFB0028F5D107F0D4FC05981890BE
:102090000820139013A803F049FE524A1068022149
:1020A00008431060106808400A900A9810680843B6
:1020B0001060106808400A900A98D0680499084394
:1020C000D060069E0E9603200D900C9412200B906B
:1020D00040200A900AAC554D2846214602F076FE73
:1020E0000E9680200A902846214602F06FFEFFF7E8
:1020F000C5FC55A4204611F061FB0028FAD10DF073
:102100000BFB044656A6099F304611F057FB0028EA
:10211000FAD10DF07BFAFC61386211F035F811F05C
:1021200021F911F063F8044611F0C6F8064611F0E3
:102130006BF951A7384611F041FB0028FAD1002075
:102140000090A2B2B3B20390014600F083FC099F55
:102150003863079801281AD14B4C386AFEF772FC95
:1021600006460F460998C069FEF76CFC02460096C9
:102170000197099F20460B4611F020FB0028ECD167
:1021800042A4396B204611F019FB0028F9D1464EC4
:102190003088002809D0202100242846224602F059
:1021A000DCFE3088642800D379E1164800780928DD
:1021B00000D982E1069981406122D200114200D10A
:1021C0007BE1801E062800D991E240007844808897
:1021D00040008744CD016B008C021B028C028C02F4
:1021E0006B00C0462C1002400D0A0000E4030020E2
:1021F00000408F404261743A252E336620560D0A06
:102200000000000031040020F40300209C9F01081E
:10221000F8030020504231355F636F756E74323AB7
:1022200025750D0A00000000BA9E01080004005048
:10223000A99E0108504231355F7374617475733A19
:1022400025640D0A0000000063616C6C696E6720F4
:1022500053485432305F525428290D0A00000000C0
:1022600063616C6C696E672053485432305F52482A
:1022700028290D0A00000000747279206C757820FE
:1022800063616C633B0A0000119F010854534C3298
:102290003536315F6C756D696E656E63653A252EF6
:1022A00031750D0A00000000DC150020FFF73EFC30
:1022B00001252846069506F095F80AAC20800A27E5
:1022C000384602F08EFC284606F08CF860803846CE
:1022D00002F087FC284606F085F8A080384602F018
:1022E00080FC284606F07EF8E080384602F079FC53
:1022F000284606F077F82081384602F072FC28461E
:1023000006F070F86081384602F06BFC2046FFF75B
:1023100000F8F24909884843F149FEF7C3FBFEF78C
:10232000EDFA099908613225284602F05AFCED4E73
:10233000304606F057F8A081384602F052FC30468D
:1023400006F050F8E081384602F04BFC304606F0CB
:1023500049F82082384602F044FC304606F042F844
:102360006082384602F03DFC304606F03BF8A08221
:10237000384602F036FC304606F034F8E082384643
:1023800002F02FFC20460C30FEF7C3FFEE4909880F
:102390004843F049FEF786FBFEF7B0FA0999486119
:1023A000284602F01EFCEE4E304606F01BF8208355
:1023B000384602F016FC304606F014F860833846C2
:1023C00002F00FFC304606F00DF8A083384602F00C
:1023D00008FC304606F006F8E083384602F001FCBF
:1023E000304605F0FFFF2084384602F0FAFB304605
:1023F00005F0F8FF60843846099F02F0F2FB1834BC
:102400002046FEF786FFD04909884843D149FEF7A8
:1024100049FBFEF773FAB8611021CA4D2846069AA7
:1024200002F09BFD0798012800D044E1C74CCA4E3A
:102430003869FEF707FB00222346FEF7A7F902469C
:1024400030460B4611F0BAF90028F1D1BF4CC54E09
:102450007869FEF7F7FA00222346FEF797F902465D
:1024600030460B4611F0AAF90028F1D1B74CBE4E08
:10247000B869FEF7E7FA00222346FEF787F902461D
:1024800030460B4611F09AF90028F1D12FE130883F
:102490006421FEF707FB641C844200D385E66420B8
:1024A00002F09FFB63212046FEF7FCFA002CEED0E1
:1024B0000029ECD107F0BEFAE9E7FFF737FB01246A
:1024C000204605F08FFF0AAF38800A26304602F01A
:1024D00088FB204605F086FF7880304602F081FBBD
:1024E000204605F07FFFB880304602F07AFB204698
:1024F00005F078FFF880304602F073FB204605F0C7
:1025000071FF3881304602F06CFB204605F06AFF0F
:102510007881304602F065FB10212846224602F001
:102520001CFD3846099FFEF7F4FE87490988484399
:102530008849FEF7B7FAFEF7E1F9386107980128F4
:102540000FD1824C844E3869FEF77CFA0022234674
:10255000FEF71CF9024630460B4611F02FF9002811
:10256000F1D17B480078801E062800D82DE6BEE019
:102570007E4C2078032860D0022875D00128039C67
:1025800000D0B1E0059818900820139013A803F02C
:10259000CDFB6B4A106802210843106010680840A8
:1025A0001C901C98106808431060106808401C902C
:1025B0001C98D06804990843D060069E209603209A
:1025C0001F901E9412201D9040201C901CAC5D4D4D
:1025D0002846214602F0FAFB209680201C902846CF
:1025E000214602F0F3FB08F045F908F0B1F8F88451
:1025F000079801285FD15E4D614CF88C6843C10C8F
:10260000204611F0DBF80028F7D170E011F040FD12
:1026100011F008FD01F0AEFDF86211F01FFD11F0A0
:10262000E7FC07980128474D45D14C4CF96A2046F4
:1026300011F0C4F80028F9D159E0201D15F080FCF4
:102640006068A168F8843985079801283D4D32D12A
:10265000474D484CF88C6843C10C3A8D204611F028
:10266000ADF80028F6D142E001F02AFD01F05EFD50
:102670001024204603F096F911F0B2FBF8842046AE
:1026800003F086F901F000FD01F036FD07980128FE
:102690002C4D10D1384C394EF88CFEF755F90022EC
:1026A0002346FEF773F8024630460B4611F086F8D3
:1026B0000028F1D11BE001F0CDFC052002F091FAD9
:1026C0000898059902F044FC387001F0A9FC20211B
:1026D0000122284602F041FC21B0F0BDE4030020B5
:1026E000FF0F000002000004E0433885F88401F089
:1026F000B1FC052002F075FA0898059902F028FC53
:10270000387001F08DFC0798012811D11D4C3978E3
:10271000204611F053F80028F9D120210122094860
:1027200002F01BFC7D20800002F05BFA21B0F0BDBE
:1027300020210122034802F010FC21B0F0BDC04668
:102740002C10024000040050E403002000408F40A1
:1027500031040020FF0F0000429E0108329F010853
:1027600010000010539E0108649E01085C020020C6
:10277000CDCC0000759E010800002440629F010836
:10278000469F0108989E010870B50E4C00206063BA
:1027900001210D4A0D4BFE25F0266361A261E66121
:1027A00021626062A562E06220631434204602F078
:1027B00007FC002801D001F0EBF90021204602F0CF
:1027C000DBFB70BDB0010020563EA110005400405C
:1027D000007885494A68854B9854012008707047F5
:1027E00080B5034815F04AFF7F480021017080BD85
:1027F000D1270008F0B583B07B480178012911D1B9
:10280000002303704168794D6A5C0D2A0CD00A2AB6
:102810000AD0012A33D143608C4C204610F0CEFF01
:102820000028FAD103B0F0BD0029FBD06B544360FF
:1028300028780126412800D0C4E06878542800D0C8
:10284000C0E0A878002828D03F282BD1684C20462B
:1028500010F0B4FF0028FAD10025664E1820684316
:1028600030184469204610F0A9FF0028FAD16D1CE9
:102870003B2DF3D10026092E00D3A5E0A5E07F294A
:1028800007D14360724C204610F098FF0028FAD11F
:10289000C8E7491C416003B0F0BD1E46092E00D3B5
:1028A00092E092E001960093524C3B26A81C0290C5
:1028B000A0CC029829463A46083CFDF79AFC00282D
:1028C00007D0761E1834002EF2D1019E092E7BD23D
:1028D0007BE04648C0198178801C00290ED03D2934
:1028E00012D03F29019E6DD16569284610F066FF20
:1028F0000028FAD1009E092E66D266E02169884739
:102900000646092E60D260E0411C42783F2A02D17F
:102910008078002852D0E26808469047064636493B
:102920002846FDF758FC00281FD034492846FDF7FB
:1029300052FC002819D032492846FDF74CFC0028EB
:1029400013D030492846FDF746FC00280DD02E490B
:102950002846FDF740FC002807D02C492846FDF703
:102960003AFC002801D0012400E000242849284630
:10297000FDF731FC002825D026492846FDF72BFC21
:1029800000281FD024492846FDF725FC002819D02F
:1029900022492846FDF71FFC002813D0204928466D
:1029A000FDF719FC00280DD0002E0BD1002C15D0FE
:1029B00000F092FD009E092E06D206E0A2680846AD
:1029C00090470646092E00D30926B00015A10C58E1
:1029D000204610F0F3FE0028FAD123E700F0FCFEB9
:1029E000009E092EF0D2F0E78C030020AA140020EC
:1029F00049A80108D893010895B001089BB00108C7
:102A0000A0B101081BB10108A8B10108B1B10108CA
:102A10003AB0010860B0010886B101086FB1010841
:102A200073B00108DAA601082EA701081BA7010848
:102A300032A8010823AF01084BA701087CA70108B1
:102A40004AA601083BA70108F8AA01083BA701080C
:102A50007CA70108F0B583B0029316460F460546E1
:102A60000898019054A4204610F0A8FE0028FAD13E
:102A70005748CB30012F04D00146029C002F04D0D0
:102A800004E05449029C002F00D15349002D00D18D
:102A900009014C434E43B50A86420CD200200199ED
:102AA000012911D0002948D1FF2302334C4A812843
:102AB00011D2F13341E04948801E20402946FDF7FC
:102AC000F1FF01990129EDD1454A464B87280AD2E9
:102AD0001132DB1C31E0434F434998420FD2133788
:102AE0003B460A4629E002943F49FF240234274628
:102AF0000A37B8420BD2103127330A461CE0374E52
:102B00001946803188420AD283363E370AE0334F75
:102B100026469036B04208D29B3752330BE0B8427B
:102B200015D26F373B46324607E01E461436B04298
:102B300014D21F3781333A46029C5D43A00A5043AA
:102B40002818012149034018800B03B0F0BD7037ED
:102B5000B8420AD2244AD5326E33EEE79A3398420D
:102B600009D2F43176342346C7E71949884208D29E
:102B7000C332D223E1E71649884208D2973223466E
:102B8000DAE71A490022884208D3134607E01749BA
:102B900000228842029C08D3134607E0182388428B
:102BA000CBD22A20C2431932C7E737238842C4D286
:102BB0002A20C243C1E7C04663616C63756C6174CF
:102BC000696E67206C75782E2E2E2E3A3B0A000017
:102BD00035030000E70F00001775000002FCFFFF3F
:102BE00042FEFFFF010200002FFDFFFF3505000040
:102BF000F0B587B00E46044607694169008900298F
:102C000004930097039113D0002811D122CCCB5DFF
:102C10007F1C083C7D1B00D32F46C95D0902C918E3
:102C2000891C0591049B009F0028069006D115E0A1
:102C3000002905900ED0002806900FD0E1688F4241
:102C400010D2414241414D00069829181F464F437A
:102C500000201AE0059100280690EFD10692E16865
:102C60008F42EED33A4641424141490001910698D4
:102C700009181F464F43059880B210186268101A51
:102C8000874201D2029113E0019D0291FDF70AFFF4
:102C9000C8B20195A8420BD9217F8A07069B0ED4A2
:102CA00001221140494201400020002B0BD104E0D9
:102CB0000021069B0020002B05D107B0F0BD019933
:102CC0000020002BF9D0039ABA18521861688A4282
:102CD000F3D8049F002F00D1BBE0180A0090002118
:102CE000069313E07119226810183A46FDF748FA66
:102CF000069B6069C019039060612946049FA06922
:102D0000401CA061F6187F1E00D19FE0059880B29C
:102D1000226910186268831A00D31846206123893B
:102D2000002B13D12268069B1354401C6268821A40
:102D300000D310462268009B13546269921C0392D0
:102D40006261401C6268831A00D31846069B121AFF
:102D50009A42154600D31D4693420DD9227F002A80
:102D60000AD0002DCBD0D307049717D19207069B2A
:102D70001ED42F460D465EE00497216808183146A0
:102D80002A46FDF7FDF9069B6069411961615F1BE9
:102D90000020029A0592002FA4D155E02189002934
:102DA000069B28D00399491900201F46054640E09C
:102DB0002189002957D121684118891E0D70216889
:102DC0004118491E2A0A0A702168081831462A4605
:102DD000FDF7D6F9069B606940196061A069401C47
:102DE000A0615F1B20680770380A2168487060691D
:102DF000811C02201DE021684118891EFF220A70F3
:102E000021684018401E0270606941196161208983
:102E1000002804D0039100201F4605460BE02068DF
:102E200003702068009941706069811C00250220B0
:102E30001F46039161610021216101997918059173
:102E40000399002F00D04DE7039156E76168206990
:102E500000900198009A1018411A00D30846216882
:102E6000081807B0F0BD002007B0F0BD10B5002471
:102E70000160C46004614461846102990177038147
:102E80004260581E834102200840400818404042DA
:102E900010BD0000F0B581B0048900220A804369AA
:102EA000002B58D00289002A0AD1C66884C8955DD3
:102EB000761C0838F71B00D33E46925D1202521969
:102EC0000A80057F03262E40012E18D1454DAA42C7
:102ED00002D10589002D14D0C5680669B54222D9F2
:102EE0000689002E1FD0476800977F1BB7421AD271
:102EF0000022C260009A9A1A5319324611E0C5683E
:102F000011E0C2680025C56045685B1B9B184361E2
:102F10000122012D00D8521B0568AA5C12022D78EF
:102F200052190A8000256142614149008F18DC1B5B
:102F300044616D184668AC1B294600D321460468DD
:102F4000BB4204D0AA18931B00D31A46C260621871
:102F50008169491E8161104601B0F0BDF0B5038959
:102F600000220A804469002C39D00489C268002CF0
:102F700009D190C8A55C561C0838F71B00D33E4603
:102F8000A45D240264190C80057F03262E40012EC7
:102F90001CD1144DAC4202D10489002C0AD0046922
:102FA000A24213D90489002C10D04568AD1AA5425D
:102FB0000AD30BE044680122012C00D8121B0468DC
:102FC000A25C1202247814190C800022002B00D17C
:102FD000921C4168511A00D30A46006882181046B4
:102FE000F0BDC046FFFF0000B0B586B000200590E0
:102FF0000490039003200290400301900F4C20683E
:103000000125284320602068284000900098052072
:10301000000701A901F0DAFE2068A8432060AD0591
:10302000A0682843A06001F049FB01F053FB01F0C8
:103030004BFBA068A843A06006B0B0BD2C100240B6
:1030400080B515F0F5FA80BD80B505F063FB80BD55
:1030500070B51449418014490988652915D38AB28D
:10306000124B5343DA0C124B53431B0C0A24634399
:10307000D31A1B018D080F4E6E43750C2D021D4394
:103080005443091B2943018070BDCAB2CD23534369
:10309000DA0A13020A245443091B0907090E5918B6
:1030A000018070BD03FF000038040020CDCC00007B
:1030B0009A1900007B140000F0B595B0FC4C204636
:1030C00000F012FE1090201D00F00EFE0F90204622
:1030D000083000F009FE0E9020460C3000F004FE8F
:1030E0000D902046103000F0FFFD0C90204614306B
:1030F00000F0FAFD0B902046183000F0F5FD0A9024
:1031000020461C3000F0F0FD11902046203000F0E9
:10311000EBFD07902046243000F0E6FD06902046A7
:10312000283000F0E1FD059020462C3000F0DCFD59
:1031300004902046303000F0D7FD0546204634305C
:1031400000F0D2FD06462046383000F0CDFD07469F
:1031500020463C3000F0C8FD09902046403000F089
:10316000C3FD0890049B190E3C22D9488154119943
:10317000090E2C22815401463C31CF733A0A8A73DE
:103180003A0C4A733A0E0A73CE72320A8A72320CC1
:103190004A72320E0A72CD712A0A8A712A0C4A7159
:1031A0002A0E0A71CB701A0A8A701A0C4A700146EC
:1031B0002C31059DCD732A0A8A732A0C4A732A0E74
:1031C0000A73069DCD722A0A8A722A0C4A722A0E46
:1031D0000A72079DCD712A0A8A712A0C4A712A0E39
:1031E0000A71119DCD702A0A8A702A0C4A70014614
:1031F0001C310A9DCD732A0A8A732A0C4A732A0E3F
:103200000A730B9DCD722A0A8A722A0C4A722A0E00
:103210000A72011D0C9DCD772A0A8A772A0C4A77FB
:103220002A0E0A7703460D9AC277110A8177110C8C
:103230004177110E01770E9901610F9A4273110ABD
:103240000173110CC172110E8172109A4272110A2F
:103250000172110CC171110E81710898D876010AA2
:103260009976010C5976000E18760999D975080AD5
:103270009875080C5875080E187520465C3000F0DB
:1032800033FD0546070E781E87412046603000F06A
:103290002BFD06462046643000F026FD0D902046AA
:1032A000683000F021FD069020466C3000F01CFDD7
:1032B0000B902046703000F017FD0A9020467430C5
:1032C00000F012FD09902046783000F00DFD0890C6
:1032D00020467C3000F008FD07902046803000F04A
:1032E00003FD0C902046843000F0FEFC0090204648
:1032F000883000F0F9FC059020468C3000F0F4FC9A
:1033000001902046903000F0EFFC0290204694306F
:1033100000F0EAFC03902046983000F0E5FC0490B1
:1033200020469C3000F0E0FC0F902046A03000F0DA
:10333000DBFC10902046A43000F0D6FC0E90A834A0
:10334000204600F0D1FC119012AC277102202070B1
:10335000204607F035FF280C2071162020702046EB
:1033600007F02EFF280A5821594A5054E8B2411E4E
:10337000484248415071154608F08CFB300E411E02
:103380008841207107202070204607F019FFFF2098
:103390000704304638404F494018414241412971A5
:1033A000300A207100202070204607F009FFF0B29B
:1033B000401E41424141502029542E460A25257085
:1033C0000D981390204607F0FBFE0698207225709A
:1033D000204607F0F5FE102020700B981390204631
:1033E00007F0EEFE112020700A981390204607F097
:1033F000E7FE1220207009981390204607F0E0FEA7
:103400001320207008981390204607F0D9FE03205F
:10341000207007981390204607F0D2FE4F20009AA4
:103420003254DA480C990160100E411E8841D54C87
:103430006070100C2070100AD74908700598206140
:10344000019A100CD2490880100AD24908702271E2
:10345000029A100ED1490870100CD1490870100A58
:10346000D0490870D04802700399080CA071080E6A
:103470006071D248018004982946FDF713FBFDF7DF
:1034800048FACA4908600F99080A20720F400A4694
:10349000781E8741A770109B180CC7490870E2710D
:1034A000C44803800E9A100EC549087002E0C04659
:1034B00004000808100CC3490870100AC2490870BB
:1034C000C2480270C2481199018015B0F0BDC046D3
:1034D000380000200000FFFFF0B585B002A80221EF
:1034E000017007F097FD002802D0A54810F066F99A
:1034F00002A81621017003990C0607F08BFD002825
:1035000002D09F4810F05AF9042102A8415609043C
:1035100021435822F54FBA5612020A4379791143D2
:10352000984D6A7A9300984CE15007210170511C24
:10353000697207F06FFD002802D0914810F03EF943
:1035400002A8002101910170039909063A79120439
:10355000561807F05FFD002802D0894810F02EF9B8
:103560005020395C02A80279120216430E43697A90
:103570008A00A6500A260670491C697207F04AFDA7
:10358000002802D07E4810F019F9687A8100039A69
:103590006250401C6872A87A01280BD102A80670FC
:1035A0000199A97207F036FD002808D0744810F080
:1035B00005F904E002A80B21017007F02BFD02A819
:1035C000017A6A7A9300E15010210170511C6972EE
:1035D00007F020FD002802D0694810F0EFF8697A62
:1035E0008800039A225002A811220270491C6972B5
:1035F00007F010FD002802D0614810F0DFF8697A6A
:103600008800039A225002A812220270491C697293
:1036100007F000FD002802D0594810F0CFF8697A71
:103620008800039A225002A813220270491C697272
:1036300007F0F0FC002802D0514810F0BFF8697A7A
:103640008800039A225002A803220270491C697262
:1036500007F0E0FC002802D0494810F0AFF86E7A7D
:10366000B0000399215049480068711CC9B2890013
:1036700060502869F11CC9B2890060504448008834
:103680000004444909780902081829794018311DB5
:10369000C9B2890060504F20385C697809062A78E1
:1036A000120451183C4A1278120289180818B11CE9
:1036B000C9B2890060503948007800063849097855
:1036C0000904081837490978090240183649097869
:1036D0004018711DC9B289006050344800683449EF
:1036E000FCF7BFFEFDF757F9F11DC9B28900605024
:1036F00030480088304909780904081831460931F2
:10370000C9B28900605068790006A97909040818CF
:103710002A4909884018B11DC9B289006050A878AB
:103720000004297A09020818E9794018314608315D
:10373000C9B2890060502248007800062149097802
:103740000904081820490978090240181F49097816
:10375000401831460A31C9B28900605030460B30FA
:10376000C0B280001A49098821500C366E72F2B23C
:103770001848214600F0FEF80198687205B0F0BDC7
:10378000C4B101082C040020F0150020080000201E
:1037900004000020D10300206415002080030020D5
:1037A000810300208203002083030020E00000202A
:1037B00000002041E0030020D2030020DC1500209F
:1037C000D6030020D5030020D8030020D703002013
:1037D000E203002060000808B0B5444A1369444C75
:1037E0002078811CC9B28D0042494B51D3691BBA64
:1037F000C51CEDB2AD004B51136A1BBA051DEDB2ED
:10380000AD004B5193791B06D5792D04EB18157A31
:103810002D025B19557A5B1985004B51937A1B0673
:10382000D57A2D04EB18157B2D025B19557B5B199E
:10383000451CEDB2AD004B51431DDBB29B00556AF8
:103840002DBACD50831DDBB29B00956A2DBACD50A9
:10385000C31DDBB29B00D56A2DBACD500346083399
:10386000DBB29B00156B2DBACD5003460933DBB29A
:103870009B00556B2DBACD5003460A33DBB29B003B
:10388000956B2DBACD5003460B33DBB29B00D56B45
:103890002DBACD5003460C33DBB29B00156C2DBA0C
:1038A000CD5003460D33DBB29B00556C2DBACD5085
:1038B00003460E33DBB29B00956C2DBACD50034608
:1038C0000F33DBB29B0055692DBACD500346103340
:1038D000DBB29B00926912BACA5011302070C2B29A
:1038E000054800F047F800202070B0BD38000020E7
:1038F000C11500207016002004000808F0B581B042
:10390000EFF3108672B601F0CBF90D4F184C3D461F
:1039100003E03846783085420BD22D1D284601F051
:1039200069F90028F5D086F3108820460FF046FF8D
:10393000EFE701F071F986F3108801B0F0BDC046E1
:103940005C000808B0B50446EFF3108572B601F0CC
:10395000A7F9204601F04EF9002804D085F310881D
:1039600003480FF02BFF01F057F985F31088B0BD25
:10397000DC9D0108F0B581B014460D460646EFF314
:10398000108772B601F08CF9002C0AD004CD022009
:10399000314601F04BF9002809D1641E361D002C78
:1039A000F4D101F039F987F3108801B0F0BD87F345
:1039B000108804A00FF002FF01F02EF987F31088A1
:1039C00001B0F0BD6572726F7220696E204545507E
:1039D000524F4D205772697465206572726F720D77
:1039E0000000000080B5012001F0E4F9022001F0A0
:1039F000E1F980BD80B5042001F0DCF9082001F078
:103A0000D9F980BDF0B581B0524D28680126C006B5
:103A10001FD551480178484248415049097800294A
:103A2000314600D0014600290FD14D4800780928C1
:103A300001D0072809D14B4801210160052000076A
:103A4000102101F085FA484908701020286001F023
:103A5000ADF9202001F0AEF9402001F0ABF9802053
:103A600001F0A8F90127380201F0A4F9780201F069
:103A7000A1F9B80201F09EF9F80201F09BF93803B0
:103A800001F098F9780301F095F92868400404D40E
:103A90002868000432D401B0F0BD2F4800784142BC
:103AA0004141324800780028324600D00A46BC0323
:103AB000002A1CD12A490978092901D006290ED1EA
:103AC000FE221040022806D12948076029480168D3
:103AD000491C01600BE0062909D0092907D02448B8
:103AE00007602548214601F033FA244908702C600C
:103AF000204601F05BF928680004CCD51648007810
:103B0000414241411E480078002800D00E46FC0387
:103B1000002E18D11249097809290AD0072912D193
:103B2000184807601448214601F012FA1749087036
:103B300009E0FE210840022805D11248076012481A
:103B40000168491C01602C60204601F02FF901B08A
:103B5000F0BDC04614040140C1030020340400201D
:103B600031040020F0030020BA03002032040020BA
:103B7000E8030020F403002000040050B8030020F4
:103B800033040020EC030020F8030020B9030020D8
:103B9000FEE7000070B5012252480168C90504D44F
:103BA000002103689B0509D40EE01102274B5C69D4
:103BB000022525435D6103689B0505D55302234C0F
:103BC000656915436561194303685B050DD4036896
:103BD0001B0514D403689B041BD403689B0322D4E5
:103BE0000368DB0328D4016070BD9302174C65693C
:103BF00008262E436661194303681B05EAD5D302E4
:103C0000124C656904262E436661194303689B04C0
:103C1000E3D553030D4C656910262E4366611943A5
:103C200003689B03DCD5094B5C6920252C435C6150
:103C300029430368DB03D6D51204044B5C69402595
:103C400025435D611143016070BDC046C41500206D
:103C5000F0B581B0054601F089F90646214F386874
:103C6000C00723D13868800701D502203860386842
:103C7000C00515D43868800512D4386840050FD4C3
:103C8000386800050CD43868800409D4386880038B
:103C900006D43868C00303D40024204601B0F0BD28
:103CA000FFF778FF0124204601B0F0BD0324002D6A
:103CB000F9D0681C0FD13868C007D3D03868C00766
:103CC000D0D03868C007CDD03868C007F3D1C9E775
:103CD0003868C007C6D001F049F9801BA842F7D95F
:103CE000E1E7C04618200240006802490860086801
:103CF0007047C0462C150020F0B58FB06F4D284698
:103D0000FFF7F2FF0E90281DFFF7EEFF0D902846FB
:103D10000830FFF7E9FF0C9028460C30FFF7E4FF6E
:103D20000B9028461030FFF7DFFF0A90284614302A
:103D3000FFF7DAFF099028461830FFF7D5FF089003
:103D400028461C30FFF7D0FF039028462030FFF7AD
:103D5000CBFF069028462430FFF7C6FF0590284683
:103D60002830FFF7C1FF049028462C30FFF7BCFF36
:103D7000019028463030FFF7B7FF07462846343019
:103D8000FFF7B2FF064628463830FFF7ADFF04467E
:103D900028463C30FFF7A8FF079040352846FFF73C
:103DA000A3FF02900198020E3C234549CA54039D8B
:103DB0002A0E2C23CA540A463C32D473230A937326
:103DC000230C5373230E1373D672330A9372330C7E
:103DD0005372330E1372D7713B0A93713B0C5371BC
:103DE0003B0E1371D070030A9370030C53700A4694
:103DF0002C32049CD473230A9373230C5373230E25
:103E00001373059CD472230A9372230C5372230EEE
:103E10001372069CD471230A9371230C5371230EE1
:103E20001371D5702B0A93702B0C53700A461C32F9
:103E3000089CD473230A9373230C5373230E1373B8
:103E4000099CD472230A9372230C5372230E1372AB
:103E50000A1D0A9CD477230A9377230C5377230EE9
:103E600013770B9BCB771A0A8A771A0C4A771A0EAC
:103E70000A770C9A0A610D9B4B731A0A0A731A0C83
:103E8000CA721A0E8A720E9B4B721A0A0A721A0CA6
:103E9000CA711A0E8A710298C876020A8A76020CD2
:103EA0004A76000E0876079ACA75100A8875100CB3
:103EB0004875100E08750FB0F0BDC046009101089E
:103EC0003800002010B586B0014600220592049209
:103ED00003920292A248036802242343036000680D
:103EE0002040009001208003019000989D48032904
:103EF00012D8484B7944097949008F44010B080ACC
:103F00000392029201A900F061FF06B010BD434B7D
:103F100000E0414B0392029301A900F057FF0724F0
:103F200002210022204601F047FD204601F03AFD23
:103F300006B010BD10B586B001460022059204926D
:103F400003920292864803680224234303600068B8
:103F5000204000900120C00301900098814803296F
:103F600012D82C4B7944097949008F44010B080A77
:103F70000392029201A900F029FF06B010BD274B61
:103F800000E0254B0392029301A900F01FFF0724D4
:103F900002210022204601F00FFD204601F002FD23
:103FA00006B010BD10B586B00146002205920492FD
:103FB000039202926A480368012423430360006865
:103FC0002040009010200190009805200007032950
:103FD00012D8104B7944097949008F44010B080A23
:103FE0000392029201A900F0F1FE06B010BD0B4B46
:103FF00000E0094B0392029301A900F0E7FE0724B9
:1040000002210022204601F0D7FC204601F0CAFC24
:1040100006B010BD0000311000001110000021108A
:1040200080B586B00020059004904D490A680123B0
:104030001A430A6009681940009103900320029016
:104040001903019100980520000701AA04F01EFA47
:1040500006B080BD80B586B0002005900490404930
:104060000A6801231A430A60096819400091022175
:10407000039102901903019100980520000701AAFD
:1040800004F004FA06B080BD80B586B0002005902B
:10409000049033490A6802231A430A6009681940E8
:1040A00000910390032002900120C002019000982B
:1040B0000520000701A900F089FE06B080BDC046BA
:1040C00080B586B00020059025490A6802231A436E
:1040D0000A600968194000910321049102900120AF
:1040E0000390C102019100980520000701AA04F085
:1040F000CDF906B080BDC04680B586B000200590E1
:10410000049017490A6801231A430A600968194094
:104110000091039003200290180301900098114829
:1041200001A900F053FE06B080BDC04680B586B040
:104130000020059001210291094A13680B43136086
:1041400012680A400092032204920390090301912D
:104150000098044801AA04F099F906B080BDC04651
:104160002C1002400004005080B504F005FE0B49FD
:10417000486080BD80B504F0FFFD084908604968CB
:10418000884201D1002080BD401AFCF7B7FB0449EA
:104190000968FCF7A3F9FCF7E5FB80BD5402002099
:1041A000E0000020F0B581B004465420205C0128D6
:1041B00003D10225284601B0F0BD23465433012522
:1041C0001D702068826803210A40012A02D102681A
:1041D000D2072FD1009381225200A36D93439A1CE2
:1041E000A265C768C2688A43C260EA07836813434E
:1041F00083600F4000F0BAFE0646206881680029FF
:104200000CD500F0B3FE801B0B28F6D3A06D102157
:10421000014302208143A165009B0FE0C16839433F
:10422000C160A06D0121014302208143A1650025E9
:10423000009B03E0A06D20210143A16500201870C0
:10424000284601B0F0BD000070B582B05422825CF7
:10425000012A02D1022002B070BD04465434026823
:1042600093685B0718D40E6849682D4830409C4D10
:104270002C4B994219D1916A81439162700304D504
:104280000120C005296881432960B00319D50120A8
:1042900081052868884313E0816D20220A438265E6
:1042A00001200021217002B070BD916A014391622A
:1042B00070030BD4B00304D501208105286808439E
:1042C000286000200021217002B070BD0120C005CF
:1042D000296801432960F6480068F649FCF7E2FBCB
:1042E0000A214143019101980028E3D00198401E22
:1042F000019001980028DDD00198401E019001989E
:104300000028D7D00198401E019001980028D1D0F4
:104310000198401E019001980028E7D1CAE7C046E5
:10432000FFFF0700011000000068006C70470000EC
:10433000F0B581B0012500283ED00446806D0028EC
:1043400003D0A06DC0060AD52FE0542000212154CF
:10435000E165204600F0C8F8A06DC00625D42068AD
:104360008168490721D481214900A26D8A43911CAB
:10437000A165816803231940594A012902D10168C6
:10438000C9072FD161680125EE07B14205D0AD07FD
:10439000A94202D09D07A94211D19B0705699D43FF
:1043A000056103690B43036114E05420002121548B
:1043B000A06D10210143A165284601B0F0BD03693D
:1043C000AB4303610F239B0415689D43156013687D
:1043D0000B431360C16818239943C160A168C36887
:1043E0000B43C36001214B0615689D431560A36B09
:1043F0005B0615681D4315608268D20003D40A0766
:104400008368134383600091C268364B1340C360D6
:104410002269921E534253419A00E5681543A269EE
:10442000E669236A5F032F43256B616B6D003D4393
:104430000D4391032943F2030A43C1681143C1604C
:10444000A66A05460C35FF221146C2318E4215D1AF
:10445000616A0129009E1AD00369216C012928D1C3
:1044600091008B430361234644330ECB0A431A4326
:10447000016911430161026932431EE02968E76A5C
:104480000F4337432F60616A0129009EE4D1002B5E
:1044900007D0A16D20230B43A36525465C35334629
:1044A00000E033042968194329600369216C01295C
:1044B000D6D0D90702D00269B2430261416907220E
:1044C00091434161E16B42690A4342610025E56520
:1044D000A06D304302218843A065284601B0F0BD9D
:1044E000082701401902FEFF7047F0B581B00D4664
:1044F00004464069082801D1082704E02068C06804
:10450000C0073FD10C2700F031FD0646216808683E
:1045100038421CD001204202A36D1343A365CA6830
:104520001205920F4BD1226A002A48D10A6812075D
:1045300045D58A68520739D4224658324B680C2533
:10454000AB434B60FF2502351368AB4335E0002DCC
:1045500022D0681C0CD108683842DBD10868384288
:10456000D8D108683842D5D108683842F3D0D1E7AD
:1045700000F0FCFC801BA8420ED821680868384275
:10458000F6D0C7E7542000212154A06D202101431B
:10459000A165012001B0F0BD542000212154A06D7F
:1045A00004210143A165032001B0F0BDA26D2023C9
:1045B0001343A36522465C32E36D03431360A26993
:1045C0000020002A01D001B0F0BD0C220A6001B029
:1045D000F0BD0000F0B581B0044601688A68022091
:1045E000520760D45422A25C012A5CD0274654377B
:1045F00001263E70E069012844D088680322024009
:10460000012A02D10868C0073CD18868274A1042B5
:1046100030D18868012202438A6025480068254914
:10462000FCF740FA00900098002817D00098401E30
:1046300000900098002811D00098401E009000982B
:1046400000280BD00098401E00900098002805D04C
:104650000098401E009000980028E7D100F086FCEA
:10466000054621680868C0070CD100F07FFC401B9C
:104670000B28F6D3A06D10210143A1655C342146BF
:1046800030460DE0A06D0C4A0240012000021018D7
:10469000A0650020E06538701C220A6008310426FD
:1046A0000A6832430A6001B0F0BDC04617000080BE
:1046B000F400002040420F00FEF0FFFF08480168B0
:1046C000012291430160704705480168042291432B
:1046D00001607047024801680222914301607047FF
:1046E0000458014070B5014624314A78022A18D195
:1046F000046822680E239A432260236801229343B0
:1047000023601A4BCC4DAC420FDDCC4DAC4215D0E2
:10471000CB4DAC4215D0CB4DAC4215D10124250474
:104720001AE00421C163012070BDC74DAC4215469B
:1047300012D0C64DAC4207D110250DE00124250250
:104740000AE00124250307E01E4668360125B4422D
:1047500001D02D0600E02D051D6000240C704A706C
:10476000816B002900D08847204670BD04000240BC
:10477000F0B581B004460068FA4F3D466C3D2968AB
:10478000AD4B98420FDDFD4A904218D0F74A904257
:104790001CD0F74A904226D10122D2042646243664
:1047A0000A422ED168E0F34A904216D0F24A904273
:1047B00019D18022264624360A4222D15CE0012209
:1047C000D202264624360A421BD155E00122D203EA
:1047D000264624360A4214D14EE0082226462436C4
:1047E0000A420ED148E00122B84205D0D206264640
:1047F00024360A4205D13FE0D205264624360A4235
:104800003AD00168090737D5026808218A43026057
:1048100098420BDDD949884210D0D449884210D043
:10482000D349884210D10121C90413E0D14A9042F2
:1048300010D0D149884207D180210BE00121C90263
:1048400008E00121C90305E00121B84201D0C906F1
:1048500000E0C9053A46683A1160E16B01220A435B
:10486000E2630021317004217170616B002903D073
:1048700020468847704B2068296898420DDDBF4A62
:10488000904214D0B94A904216D0B94A90421CD1F5
:10489000012292040A4222D15DE0B64A904210D031
:1048A000B54A904211D140220A4218D153E0012268
:1048B00092020A4213D14EE0012292030A420ED123
:1048C00049E004220A420AD145E00122B84203D05D
:1048D00092060A4203D13EE092050A423BD00168AB
:1048E000490738D50168890603D401680422914339
:1048F000016098420BDDA149884210D09B49884253
:1049000010D09B49884212D10121890415E09949B0
:1049100088420AD09849884209D140210DE00121FE
:1049200089020AE00121890307E0042105E0012151
:10493000B84201D0890600E089053A46683A11601C
:1049400005217170216B002905D020461F4688473C
:104950003B46844F2068296898420DDD874A904283
:1049600014D0824A904216D0814A90421CD1012232
:1049700052040A4223D11DE07E4A904210D07E4A62
:10498000904211D120220A4219D113E00122520291
:104990000A4214D10EE0012252030A420FD109E06B
:1049A00002220A420BD105E00122B84204D052068D
:1049B0000A4204D101B0F0BD52050A42FAD00168A2
:1049C0008907F7D50168890603D40168022291435B
:1049D000016098420BDD6949884210D063498842E2
:1049E00010D06349884212D10120400415E061498A
:1049F00088420AD06049884209D120200DE0012078
:104A000040020AE00120400307E0022005E0012106
:104A1000B84201D0480600E04805683F3860E06BC6
:104A2000E0630020307001207070E16A0029C1D07D
:104A30002046884701B0F0BD2F0002403000024000
:104A40004400024058000240080002401C0002409E
:104A5000F0B584B0002836D0014624314A78002AC7
:104A600001D100220A70022203914A7003681A6879
:104A7000384C144007460837E4CF81690091C1697A
:104A80000191016A029122432A4332433A43009939
:104A90000A4301990A4302990A431A602E4A2F4990
:104AA0008B4213DD2E498B4221DC30498B422CD0C6
:104AB0002F498B4248D10F21090413688B4313609F
:104AC000406800043DE0012004B0F0BD29498B425C
:104AD00023D029498B4226D028498B4234D10F213B
:104AE000090213688B4313604068000229E01D49E6
:104AF0008B421FD01C498B4226D10F210906136817
:104B00008B431360406800061BE00F210903136804
:104B10008B4313604068000313E011680F2399432F
:104B2000116040680DE01168F023994311604068FE
:104B3000000106E00F21090513688B4313604068EC
:104B4000000511680143116001200399487000209D
:104B500004B0F0BD0FC0FFFFA800024043000240B8
:104B60006B0002406C0002408000024044000240A2
:104B700058000240080002401C0002403000024081
:104B8000F0B581B02424045D012C02D1022001B0D3
:104B9000F0BD0446243402250095657005682F6831
:104BA0000126B7432F606B6080681028134600D041
:104BB0000B46AB60102800D01146E96028680099C8
:104BC00008432860286804210143296028680821D7
:104BD000014329602670286830432860002001B016
:104BE000F0BD80B582B001900198FEF72DFA02B0B9
:104BF00080BD0000B0B50546284C2046FFF728F8D8
:104C0000002800D0B0BD2448002141612960204621
:104C1000FFF71EF8B0BDC0460348016801220A43F1
:104C2000026000207047C04604200240F0B581B009
:104C30000646194F387C012802D1022001B0F0BD90
:104C400014460D46012038741448FFF701F8002877
:104C500003D00021397401B0F0BD10490020786103
:104C6000002E08D0012E0BD0022E0ED12C60002178
:104C7000397401B0F0BD2C700021397401B0F0BD61
:104C80002C800021397401B0F0BD0846FEF7E0FF2A
:104C90000021397401B0F0BDC415002050C30000DC
:104CA0000648014608390968C90701D10120704743
:104CB0000349016003490160002070470C20024055
:104CC000EFCDAB8905040302F0B587B0029000294F
:104CD00069D00C4699480299814201D0062000E033
:104CE00005200B22120702998A18920A8B0599183F
:104CF0000191052900D3019000210B460F46009435
:104D000006E07F1C2046F840091D9B1C00284AD065
:104D10000125BD4028462040F3D003260396049089
:104D20009E400593029B1A6832431A601C240C4073
:104D300006910F210A46A240FC08A4001C19206A13
:104D4000904320629868B04398605868A8435860C0
:104D5000D868B043049ED860059B0C20069A10408A
:104D600081403D46039A9543784AAA5803910A40E8
:104D70000699019C8440A242009CC2D17348281825
:104D8000026803998A43069902606D4A1068B0432D
:104D900010605068B04350609068B0439060D06835
:104DA000B043D060ADE707B0F0BDC04680B503F0BA
:104DB0009BFB80BD80B504490A68024202D00860AE
:104DC000FFF7F4FF80BDC04614040140F0B587B082
:104DD00002900C68002C00D1AEE05848029B834240
:104DE00001D0062000E005200B2212079A18920A33
:104DF0009B059A180092052A00D300900027069779
:104E00003E460DE02B434E48C360761C0C6820469E
:104E1000F0403F1D069A921C0692002800D18BE0BC
:104E200001230593B3401C40EFD0049408464D681D
:104E30001021294312290ED11C2139400F248C4006
:104E4000F508AD00029A55192A6AA24304698C40FC
:104E500014432C6245680397122D67D80599A94021
:104E6000394A114262D003210196069EB140029F49
:104E7000BA688A43C468B440019E1443BC602A09DE
:104E8000B2407C689C4314437C60C9437400032394
:104E90002A4601931A40A2403B680B4013433B60F3
:104EA0008268A240FB680B401343FB60E9000146A7
:104EB000049D039FA9D5234A1068059B18431060E1
:104EC0000C2038400F2282403346019CA3431F4CE4
:104ED0001C599443009A824022431C481A50184897
:104EE00003684C68E2030FD52B4303604368A203B9
:104EF0000FD4AB4343608368E2020FD4AB438360BB
:104F0000C368A00210D57DE7AB4303604368A203EA
:104F1000EFD52B4343608368E202EFD52B438360D8
:104F2000C368A00200D56DE7AB436CE70321069C84
:104F3000A140C943029FAAE707B0F0BD001C005082
:104F40000004014034100240060006000800014041
:104F500000690840411E88417047002A02D018228B
:104F60008150704728228150704700000148006836
:104F70007047C046F0160020B0B5024603464033E5
:104F80005C780220202C17D11C78012C14D024200E
:104F90005870106802680124A24302602203056869
:104FA0009543056002680A4302600168214301607D
:104FB0000020187020215970B0BD406C704700006F
:104FC000F0B581B0002822D0044605464035687807
:104FD000002804D100202870204600F03BFC24204B
:104FE00068702068026801218A4302600F2212065D
:104FF0006368934303618368194A13408360A3681D
:10500000E668012E06D1CE03334383600AE0012017
:1050100001B0F0BD2127BF023B438360022E01D1C6
:10502000CB02436043680F4E1E434660C368134083
:10503000C360226963691343A26912021A43C26002
:10504000E269236A1343036002680A430260002096
:105050006064202169702063A87001B0F0BDC04673
:10506000FF7FFFFF00800002F0B585B005460446D3
:10507000403466780220202E02D12678012E01D1FC
:1050800005B0F0BD029303920491012001902070BD
:10509000FFF76CFF07462868816909040BD5019862
:1050A000C603FFF763FFC01B192800D995E02868E5
:1050B00081693142F5D1222161701021A170002255
:1050C0006A6402996985039969626A63698D090A4C
:1050D000C44BC549009209D0049A1A4043680B405A
:1050E0001343514A1A434260FF220CE06A8D436821
:1050F0000B40049EBB490E40D1B2090489191943E3
:10510000484B0B4343600A9E2A85688D002857D080
:105110000498B4490840049011E0698D29854268DB
:10512000B14B1A40C9B20904114301225206001DB5
:10513000049B194311430160688D002840D0284624
:1051400031463A4603F06AFF002857D1686A411C8D
:1051500069622968496A0170288D401E2885698D19
:10516000491E69850004E7D1688D0028E4D02868CD
:105170008169090619D4711C0BD0002E46D0FFF7A7
:10518000F5FEC01BB04241D8286881690906F6D5F2
:105190000BE08169090608D48169090605D4816993
:1051A000090602D481690906F3D5698D090AB4D0CC
:1051B000FF21298541688C4A1140001D8D4AB7E7BF
:1051C000284631463A4603F0A3FF002809D0686C10
:1051D000042823D0032005B0F0BD202060700020FB
:1051E00017E028682021C1614268834B1340436067
:1051F000617000982070A07005B0F0BD686C042844
:10520000019800D13CE7032005B0F0BD202060707C
:1052100000982070A070032005B0F0BD012005B0FB
:10522000F0BDC046002400020024FF01F0B585B0A7
:1052300005460446403466780220202E02D12678A6
:10524000012E01D105B0F0BD02930392049101201B
:1052500001902070FFF78AFE0746286881690904DB
:105260000BD50198C603FFF781FEC01B192800D992
:1052700094E0286881693142F5D1212161701021C3
:10528000A17000226A6402996985039969626A6360
:10529000698D090AE64BE549009209D0049A1A4043
:1052A00043680B401343524A1A434260FF220CE00A
:1052B0006A8D43680B40049EDD490E40D1B209045B
:1052C00089191943494B0B4343600A9E2A85688D0F
:1052D000002856D00498D6490840049011E0698D02
:1052E00029854268D14B1A40C9B2090411430122F1
:1052F0005206001D049B194311430160688D00286C
:105300003FD0284631463A4603F06AFF002856D17E
:10531000696A481C6862286809788162298D491E7B
:1053200029856A8D521E6A850904E7D1698D002995
:10533000E4D08169090619D4711C0BD0002E46D027
:10534000FFF714FEC01BB04241D8286881690906E6
:10535000F6D50BE08169090608D48169090605D4F0
:105360008169090602D481690906F3D5698D090AA4
:10537000B5D0FF2129854168AC4A1140001DAF4AD4
:10538000B8E7284631463A4603F0C2FE002809D065
:10539000686C042823D0032005B0F0BD2020607085
:1053A000002017E028682021C1614268A44B134007
:1053B0004360617000982070A07005B0F0BD686C0B
:1053C0000428019800D13DE7032005B0F0BD20205E
:1053D000607000982070A070032005B0F0BD01201F
:1053E00005B0F0BDFF030000009800FC00200002A3
:1053F0000020FF010000FF0100E800FEF0B589B0C9
:105400000446074640377D780220202D46D10E9E67
:105410000125002E3FD007960F9E0696002E3AD00B
:105420003D78012D054636D0029203930491012563
:1054300005973D70FFF79AFD089020688069000489
:10544000079E0AD5EF03FFF791FD0899401A192826
:105450003BD8206880693842F5D110992220059AFE
:1054600050704020907000276764666267630698FA
:10547000608507910091089E019620460499029A42
:10548000039B03F0FDFC00280CD005980770606CAE
:10549000042800D00325284609B0F0BD054628465B
:1054A00009B0F0BD059D0697608D000AE74BE54801
:1054B00015D0049A024020684168194004921143B3
:1054C0005D4A0A434260FF2018E020200599487099
:1054D0000020087088700325284609B0F0BD049E9E
:1054E0000640608D21684A681A40C3B21B0413430A
:1054F00004963343089E4F4A1A434A602F46079D3D
:1055000020850FE0616A4A1C6262406A0870208D43
:10551000401E2085618D491E6185000421D0608D6B
:10552000002863D0206881694907EBD4691C0BD03F
:10553000002D52D0FFF71AFD801BA8424DD82068DD
:1055400081694907F6D5DDE781694907DAD48169C0
:105550004907D7D481694907D4D481694907F3D56C
:10556000D0E7608D0028DAD020688169090619D457
:10557000691C0BD0002D30D0FFF7F8FC801BA8422F
:105580002BD8206881690906F6D50BE081690906E8
:1055900008D48169090605D48169090602D48169A4
:1055A0000906F3D5618D090A07D0FF2121854168DD
:1055B000A64A1140001DA44A0AE0618D2185426877
:1055C000A24B1A40C9B20904114301225206001D20
:1055D000049B194311430160A1E72020787000204B
:1055E0003870B8700325284609B0F0BD204629461A
:1055F000324603F08DFD002806D0606C042811D0DF
:105600000325284609B0F0BD20682021C161426809
:105610008F4B134043607970069D3D70BD702846E6
:1056200009B0F0BD0125284609B0F0BD009800FC86
:10563000FF030000002400020024FF010000FF011E
:1056400000E800FEF0B58BB00546044640346078B3
:10565000022720280ED1109E0120002E08D0099686
:10566000119E0896002E03D020780128384604D1D8
:105670000BB0F0BD38460BB0F0BD04920593079116
:10568000012006902070FFF771FC0A90286880695D
:105690000004099E0CD50698C703FFF767FC0A991A
:1056A000401A192800D99FE0286880693842F4D14F
:1056B0001299212060704020A070002068646E6202
:1056C0000646686308986885099100910A9F0197CA
:1056D00028460799049A059B03F036FC002807D05A
:1056E0002670686C04280698C2D003200BB0F0BD69
:1056F00001214A06688D000A5248544B06910396D0
:1057000008920BD0079A0240286841681940079216
:1057100011434D4A11434160FF200EE0079F0740AF
:10572000688D296816464A681A40C3B21B041343A1
:1057300007973B430A9F33434B60099B28850FE043
:10574000698D298542683240C9B209041143001DA0
:10575000089A079E314311430160688D002853D099
:10576000284619463A4603F03BFD002844D1696AB1
:10577000481C6862286809788162298D491E29853C
:105780006A8D521E6A850904099BE6D1698D00293C
:10579000E3D0816909061CD4591C2C4E0CD0002B77
:1057A00022D0FFF7E3FB099BC01B98421CD8286856
:1057B00081690906F5D50DE0816909060AD4816978
:1057C000090607D48169090604D481690906F3D55D
:1057D00000E01E4E698D090AB2D0FF21298541687B
:1057E0003140001D184AB4E720206070002020706E
:1057F000A07003200BB0F0BD686C0428069800D19F
:1058000036E703200BB0F0BD284619463A4603F0B0
:105810007FFC002805D0686C04280FD003200BB053
:10582000F0BD28682021C1614268094B13404360E4
:10583000617003982070A0700BB0F0BD01200BB018
:10584000F0BDC046FF0300000000FF01009800FC0F
:1058500000E800FE70B58EB00126300305900820E8
:105860000090684600F062FA154801680222114370
:1058700001600168114009910999016811430160B3
:1058800001681140099109997105C2680A43C26013
:105890000D9603200C9000200B9012200A904020BF
:1058A0000990084C09AD20462946FFF78FFA0D965E
:1058B0008020099020462946FFF788FA0EB070BD77
:1058C0002C10024000040050B0B5002817D0044648
:1058D0000068114901601149016061684160A16877
:1058E0008160FFF743FB05462068C168002908D0A6
:1058F000FFF73CFB401B3028F6D90320B0BD012048
:10590000B0BDE16802698A4203D108490160002004
:10591000B0BD01610020B0BDCCCC000055550000E9
:1059200000680249016000207047C046AAAA000032
:1059300002480168491C01607047C046F01600200B
:1059400080B51248016802220A430260032000F079
:1059500005F800F005F8002080BDC0460020704723
:1059600080B50120000708490A6802430A6000F078
:105970004FF800F045F80548016808220A43026024
:1059800000F036F880BDC0463810024000200240CA
:105990001F21014001208840014908607047C0462E
:1059A00080E100E01F21014001208840014908609A
:1059B0007047C04600E100E0002805D403220346FA
:1059C0009343094A9A1803E00C220240074BD2186D
:1059D0008007C00E8901C9B28140FF23834010684F
:1059E000984308431060704700E400E014ED00E0C5
:1059F0000120800220490A6802430A607047C046BD
:105A0000012040021C490A6802430A607047C046F0
:105A100019480168102291430160704710B5164A79
:105A200013680324A3430343136014480268042348
:105A30009A430260012901D130BF10BD40BF20BF91
:105A400020BF10BD10B50C4A13680324A3430343C1
:105A500013600A480368042213430360012904D138
:105A600030BF01689143016010BD40BF20BF20BF1F
:105A700001689143016010BD0070004010ED00E02E
:105A8000F0B581B00146421E00203F2A00D953E004
:105A90005200C0467A449288520097443F005F000B
:105AA0000D0175000D010D010D018C000D010D01A1
:105AB0000D010D010D010D010D019F000D010D01E5
:105AC0000D010D010D010D010D010D010D010D0166
:105AD0000D010D010D010D010D01A7000D010D01BD
